:020000040000fa
:080000000002040000000000f2
:020000040000fa
:04000800fc020000f6
:020000040000fa
:04000c00fc020000f2
:020000040000fa
:04001000fc020000ee
:020000040000fa
:04001400fc020000ea
:020000040000fa
:04001800fc020000e6
:020000040000fa
:04001c00fc020000e2
:020000040000fa
:04002000fc020000de
:020000040000fa
:04002400fc020000da
:020000040000fa
:04002800fc020000d6
:020000040000fa
:04002c00fc020000d2
:020000040000fa
:04003000fc020000ce
:020000040000fa
:04003400fc020000ca
:020000040000fa
:04003800fc020000c6
:020000040000fa
:04003c00fc020000c2
:020000040000fa
:04004000fc020000be
:020000040000fa
:04004400fc020000ba
:020000040000fa
:04004800fc020000b6
:020000040000fa
:04004c00fc020000b2
:020000040000fa
:04005000fc020000ae
:020000040000fa
:04005400fc020000aa
:020000040000fa
:04005800fc020000a6
:020000040000fa
:04005c00fc020000a2
:020000040000fa
:04006000fc0200009e
:020000040000fa
:04006400fc0200009a
:020000040000fa
:04006800fc02000096
:020000040000fa
:04006c00fc02000092
:020000040000fa
:04007000fc0200008e
:020000040000fa
:04007400fc0200008a
:020000040000fa
:04007800fc02000086
:020000040000fa
:04007c00fc02000082
:020000040000fa
:04008000fc0200007e
:020000040000fa
:04008400fc0200007a
:020000040000fa
:04008800fc02000076
:020000040000fa
:04008c00fc02000072
:020000040000fa
:04009000fc0200006e
:020000040000fa
:04009400d402000092
:020000040000fa
:04009800fc02000066
:020000040000fa
:04009c00fc02000062
:020000040000fa
:0400a000fc0200005e
:020000040000fa
:0400a400fc0200005a
:020000040000fa
:0400a800fc02000056
:020000040000fa
:0400ac00fc02000052
:020000040000fa
:0400b000fc0200004e
:020000040000fa
:0400b400fc0200004a
:020000040000fa
:0400b800fc02000046
:020000040000fa
:0400bc00fc02000042
:020000040000fa
:0400c000fc0200003e
:020000040000fa
:0400c400fc0200003a
:020000040000fa
:0400c800fc02000036
:020000040000fa
:0400cc00fc02000032
:020000040000fa
:0400d000fc0200002e
:020000040000fa
:0400d400fc0200002a
:020000040000fa
:0400d800fc02000026
:020000040000fa
:0400dc00fc02000022
:020000040000fa
:0400e000fc0200001e
:020000040000fa
:0400e400fc0200001a
:020000040000fa
:0400e800fc02000016
:020000040000fa
:0400ec00fc02000012
:020000040000fa
:0400f000fc0200000e
:020000040000fa
:0400f400fc0200000a
:020000040000fa
:0400f800fc02000006
:020000040000fa
:0400fc00fc02000002
:020000040000fa
:04010000fc020000fd
:020000040000fa
:04010400fc020000f9
:020000040000fa
:04010800fc020000f5
:020000040000fa
:04010c00fc020000f1
:020000040000fa
:04011000fc020000ed
:020000040000fa
:04011400fc020000e9
:020000040000fa
:04011800fc020000e5
:020000040000fa
:04011c00fc020000e1
:020000040000fa
:04012000fc020000dd
:020000040000fa
:04012400fc020000d9
:020000040000fa
:04012800fc020000d5
:020000040000fa
:04012c00fc020000d1
:020000040000fa
:04013000fc020000cd
:020000040000fa
:04013400fc020000c9
:020000040000fa
:04013800fc020000c5
:020000040000fa
:04013c00fc020000c1
:020000040000fa
:04014000fc020000bd
:020000040000fa
:04014400fc020000b9
:020000040000fa
:04014800fc020000b5
:020000040000fa
:04020800fc020000f4
:020000040000fa
:04020c00fc020000f0
:020000040000fa
:04021000fc020000ec
:020000040000fa
:04021400fc020000e8
:020000040000fa
:04021800fc020000e4
:020000040000fa
:04021c00fc020000e0
:020000040000fa
:04022000fc020000dc
:020000040000fa
:04022400fc020000d8
:020000040000fa
:04022800fc020000d4
:020000040000fa
:04022c00fc020000d0
:020000040000fa
:04023000fc020000cc
:020000040000fa
:04023400fc020000c8
:020000040000fa
:04023800fc020000c4
:020000040000fa
:04023c00fc020000c0
:020000040000fa
:04024000fc020000bc
:020000040000fa
:04024400fc020000b8
:020000040000fa
:04024800fc020000b4
:020000040000fa
:04024c00fc020000b0
:020000040000fa
:04025000fc020000ac
:020000040000fa
:04025400fc020000a8
:020000040000fa
:04025800fc020000a4
:020000040000fa
:04025c00fc020000a0
:020000040000fa
:04026000fc0200009c
:020000040000fa
:04026400fc02000098
:020000040000fa
:04026800fc02000094
:020000040000fa
:04026c00fc02000090
:020000040000fa
:04027000fc0200008c
:020000040000fa
:04027400fc02000088
:020000040000fa
:04027800fc02000084
:020000040000fa
:04027c00fc02000080
:020000040000fa
:04028000fc0200007c
:020000040000fa
:04028400fc02000078
:020000040000fa
:04028800fc02000074
:020000040000fa
:04028c00fc02000070
:020000040000fa
:04029000fc0200006c
:020000040000fa
:04029400d402000090
:020000040000fa
:04029800fc02000064
:020000040000fa
:04029c00fc02000060
:020000040000fa
:0402a000fc0200005c
:020000040000fa
:0402a400fc02000058
:020000040000fa
:0402a800fc02000054
:020000040000fa
:0402ac00fc02000050
:020000040000fa
:0402b000fc0200004c
:020000040000fa
:0402b400fc02000048
:020000040000fa
:0402b800fc02000044
:020000040000fa
:0402bc00fc02000040
:020000040000fa
:0402c000fc0200003c
:020000040000fa
:0402c400fc02000038
:020000040000fa
:0402c800fc02000034
:020000040000fa
:0402cc00fc02000030
:020000040000fa
:0402d000fc0200002c
:020000040000fa
:0402d400fc02000028
:020000040000fa
:0402d800fc02000024
:020000040000fa
:0402dc00fc02000020
:020000040000fa
:0402e000fc0200001c
:020000040000fa
:0402e400fc02000018
:020000040000fa
:0402e800fc02000014
:020000040000fa
:0402ec00fc02000010
:020000040000fa
:0402f000fc0200000c
:020000040000fa
:0402f400fc02000008
:020000040000fa
:0402f800fc02000004
:020000040000fa
:0402fc00fc02000000
:020000040000fa
:04030000fc020000fb
:020000040000fa
:04030400fc020000f7
:020000040000fa
:04030800fc020000f3
:020000040000fa
:04030c00fc020000ef
:020000040000fa
:04031000fc020000eb
:020000040000fa
:04031400fc020000e7
:020000040000fa
:04031800fc020000e3
:020000040000fa
:04031c00fc020000df
:020000040000fa
:04032000fc020000db
:020000040000fa
:04032400fc020000d7
:020000040000fa
:04032800fc020000d3
:020000040000fa
:04032c00fc020000cf
:020000040000fa
:04033000fc020000cb
:020000040000fa
:04033400fc020000c7
:020000040000fa
:04033800fc020000c3
:020000040000fa
:04033c00fc020000bf
:020000040000fa
:04034000fc020000bb
:020000040000fa
:04034400fc020000b7
:020000040000fa
:04034800fc020000b3
:020000040000fa
:100400004fcd20000e7f22000e018800000000006a
:10041000000020000000e000020032000001200087
:100420002002880014000700750007000000e000ab
:1004300003003a0020ad2500010020000200370033
:100440000000200001002000810f70000100320038
:1004500014000700000020000000e000020032004d
:100460000000020000000000865c020000000000a6
:100470000040da000000fe004440a9006080200037
:100480000000e0000300320000002000a00188000e
:100490004440a800000006008a1f78008b1f7800e7
:1004a0000000060091018800800478000000eb0045
:1004b0001a003700e284440032a0b4009905ba0063
:1004c000e284440032a0b4009906ba00e2844400f9
:1004d00032a0b4000006eb00476fde00fd07b2005b
:1004e000636ce10003003a00ebff07000000eb0043
:1004f0000a003700606ce10004003a00005deb0088
:100500008b05e900fdff3e00040037006168e10053
:10051000010032000086eb000b00070019c7ba008b
:100520001905ba000e04e00003003a000a00e000da
:10053000e0ff3a0000000600fe07b2009e018800be
:100540008a047800f5ff3700395dba008b05e900b1
:100550000c003200295dba008b05e900080032006a
:100560000c00e00003003a00e284440032a0b40032
:10057000f5ff370019ddba008b05e900faff3a00f4
:100580008904e800e184440032a0b40000000600c1
:10059000000000000000000000000000000000005b
:1005a00000000000000000003600f800809fbe0040
:1005b000829fbe00849fbe00869fbe003400f8006c
:1005c00000002000a00188000000fa008760a90058
:1005d000b0408000000001000080fa003400f90003
:1005e0004f03be004f02be004f01be004f00be00d1
:1005f0003600f900004006000040da000000fe006e
:1006000000000500889fbe008a9fbe00800478001d
:100610000200e0005a00320001407800814c78006e
:1006200082814400f1f99f00e20f5100540036002e
:1006300091449800a1449800e1f99f00d1f99f00ee
:10064000e60f51004e003600b1449800c1f99f00fa
:10065000e80f51004a0036000905ea00630565000d
:100660000a8444000a055100c1ff2f0001056500fe
:100670000080fb008000eb0012102000131020000f
:100680000e160700008cbe000a01440060b99f00ee
:1006900071b99f00e80f550039003600200498001a
:1006a00031049800400498005104980020b99f003c
:1006b00031b99f0040b99f0051b99f00f80f550014
:1006c0002f0036006004980071049800000c980018
:1006d000110c9800200c9800310c9800400c9800e8
:1006e000510c980020b19f0031b19f0040b19f0094
:1006f00051b19f0060b19f0071b19f0000b99f0090
:1007000011b99f00640164007801410002044400b3
:10071000020555006011b8000203be000002be00d1
:100720000403be006022b8000000720081807200e5
:1007300002017300838173000f0037000802780004
:10074000009abe00029abe00009abe000292be004d
:10075000000c9800110c9800220c9800330c9800a3
:10076000400c9800510c9800620c9800730c980093
:100770000a02b1000802b000ff0f5500efff3e0073
:10078000090078004f05be004f04be0000000600bf
:100790000000fa004fb99700e881570002000700f7
:1007a0000080fa00000006000f04b0008e1f7800e1
:1007b00002027800030178000000e000020032002d
:1007c00000077800020037000efc2f000f074700db
:1007d0008002eb000100e000010032008102e9002c
:1007e0000f007800e003b1001d0009000018eb00c5
:1007f00000fc2f000f00400000a8eb002310200099
:10080000a3a79f00bea79f00c1a79f00d5a79f00d9
:100810000100e00004003d00b00420009066880064
:100820000080eb0005003700004feb00fea79f00a3
:10083000eea79f0084007800030007004f077800b0
:100840000f04b100000006000200fa00881f7800c3
:1008500000047800e2bf9f00648157000800780020
:10086000ce010700980090000148a300010032006b
:100870000080eb004f0478000080fa0000000600c2
:10088000889fbe008a1f780080047800490090008d
:1008900002047800800f5400010036000004780044
:1008a000080178006a8544001a007800db0107001f
:1008b0001a004400000d7800e8844400990c1400ec
:1008c0000048eb004f0578004f04be000000060012
:1008d000f2874700889fbe008a9fbe008c9fbe00a3
:1008e0008e1f7800800478000105780002047800eb
:1008f000830578006107620002003a008b0f540004
:1009000008003900080178008a00780009007800a2
:10091000dbff07008b0f54000200390088057800c8
:100920001e003700088655000c017800f00f5600b5
:100930000100360002012000010220007e805700e5
:1009400030ff07008c067800050037000201200008
:10095000fe80570009007800c9ff0700f0865600a6
:10096000ef8f5600f9ff3e004461de0000ff2f00cc
:100970000091b90002014600fe805700090078008e
:10098000bfff07000e00e00004003a0008017800f5
:100990008a00780009007800b9ff07000b00780092
:1009a0004f0778004f06be004f05be004f04be0043
:1009b0002f01b10000000600000005000000050046
:1009c00000000500000178000040eb008080fb0083
:1009d0008180400063c9200063c278000404e00005
:1009e00003003a0070c9200060c0780000000600d3
:1009f00092017800934f520004003a0070c9200021
:100a000060c078000309e800010037000040e800fa
:100a1000ea4f5000edff360000000600f687470061
:100a2000889fbe008a9fbe008c9fbe008e1f7800ec
:100a300080047800010478008305780004067800bb
:100a40000000eb00c0b79f008080eb00d1b79f0093
:100a5000e0b79f00f2b79f000008200080bf9f0012
:100a600098007800010078000005eb0001003700d5
:100a70000a05e800304178000204e000030032007b
:100a800053c2b300834f5100f9ff3a000a00e0005f
:100a9000040032000a0178000900780078ff07009e
:100aa000180c45001807780050c2b3009e4f100084
:100ab00033013a000e07e8000e0c780010003700f2
:100ac000cfb097000100a0000b003700cfb0970017
:100ad0000110a00008003700cfb097000120a0004f
:100ae00005003700cfb097000130a00002003700aa
:100af000cfb097000140a000c1b79f00000ce800f4
:100b00001800780090407800b2c2b30082cf500045
:100b1000f1ff320007003c0002c2b30082cf500058
:100b2000f0ff320032c2b30082cf500007003a001b
:100b3000efff3700d2c2b30082cf5000e0ff320097
:100b400002c3b30082cf5000e0ff3200a2c2b30064
:100b500082cf50000d003a00000ce8001c80e90034
:100b6000000e780010007800e0b79f000000e00061
:100b70000f003d00cfb097000100a200c1b79f0059
:100b80000000ea00e0b79f0009003700670b07008c
:100b9000e0b79f0001003700000ce8001800780063
:100ba0009000fb000103b100e98f5000faff36000e
:100bb0004fb097000008a300020032000010a1000f
:100bc000c0b79f0018007800e1c2b30090cf1000ba
:100bd00016003a008000eb00d1b79f000000e8004b
:100be000000c7800a1c2b30090cf100006003a00bc
:100bf000000ce8001c80e900000e7800100078006e
:100c0000d0b79f0009003700480b0700d0b79f00fe
:100c100001003700000ce800180078009000fb008d
:100c20000103b100e98f5000faff36000800780098
:100c300064ff070080467800180078001000fb0071
:100c4000f312070091062000810f50003800320097
:100c500012003c0041062000810f50003400320099
:100c60000a003c0011062000810f500020003200d5
:100c700031062000810f50009a00320051022000fe
:100c8000810f5000ae003a00a70037007106200027
:100c9000810f5000aa003c008200370001072000ad
:100ca000810f50005c00320007003c00e10620008c
:100cb000810f500074003200f1062000810f5000b7
:100cc0009f003a003900370051072000810f500083
:100cd0002700320081072000810f500042003200bf
:100ce00031072000810f500095003a008500370041
:100cf0008d80fb000c01780000fe2f000f004000eb
:100d0000ca1207000000e0009c00320018007800c2
:100d1000000ce8009041780002fe2f000f01410016
:100d2000f880570009007800950b07000e00370087
:100d30008d80fb008c0178001200200000fe2f0047
:100d40000f004000d81207000000e0008b003200c6
:100d5000180ce80002fe2f000f014100f880570038
:100d600009007800170e07000005450084003700d1
:100d70008d80fb008c0178000001eb0000fe2f004d
:100d80000f004000c81207000000e0007b003200a6
:100d9000180ce80002fe2f000f014100f8805700f8
:100da00009007800b4110700efff37008d80fb00c9
:100db0008c0178000001eb0000fe2f000f004000c6
:100dc000b91207000000e0006c003200180ce800c7
:100dd00002fe2f000f014100f88057000900780043
:100de000f4100700e0ff37008d80fb008c017800d5
:100df0000001eb0000fe2f000f004000aa120700c8
:100e00000000e0005d00320018007800000ce800ef
:100e100090417800160037008c0178000001eb004b
:100e2000010f200000fe2f000f0040009e1207005f
:100e30000000e00051003200180ce8000fb09700ed
:100e40009fb097002fb19700bfb19700e00f5000ff
:100e5000e08f5800e00f5900e08f590003003a007e
:100e60008001eb0002c920004000370083c7b300b7
:100e700002fe2f000f014100f880570009007800a2
:100e8000a6110700b8ff37000b0145008d80fb005d
:100e90008c01780000fe2f000f004000db120700dd
:100ea000360037008d80fb000c01780000fe2f001b
:100eb0000f0040005d1207000000e0002f0032002c
:100ec00018007800000ce8009041780002fe2f0026
:100ed0000f014100f880570009007800130e070049
:100ee000a1ff370000c8b30080cf560023003a00ae
:100ef000180ce8001c80e900000e78001040780013
:100f00000d00370000c8b30080cf56001b003a0028
:100f1000180ce8001c80e900000e78008001eb004e
:100f2000100178001100370001c8b30081cf5600ce
:100f300012003a00180ce800e0df9f0008003700bc
:100f400050c2b300e0df9f000e0c78000000eb0001
:100f5000c0b79f00e0b79f008080eb00d1b79f0033
:100f600013002000e2fd2f000f014100f880570020
:100f700009007800c41007007bff3700180ce80058
:100f80000a0078004f0778004f06be004f05be00ec
:100f90004f04be006f01b100000006008200fa009d
:100fa000889fbe008a1f78000005780082047800c0
:100fb000c13f9f000004eb001000370009027800d9
:100fc00088017800a2f72f000f01410081f72f0060
:100fd0008f8040000a00780090fe07000800400063
:100fe000880f500004003d00b00420009066880087
:100ff0000084eb0004003700000478004f389700ad
:101000001004e000edff3a00080078004f0578007a
:101010004f04be000080fa00000006008001780046
:1010200002003700b15978000201e9000200e00037
:10103000fcff3a00000006008000eb002f003700a4
:101040003c00fa00889fbe008a9fbe000004be00dc
:10105000020578000f0078004004b1001d0009006f
:101060000018eb0088a79f00d8af9f008085eb0099
:10107000ebaf9f006022b8006033b800c0fb2f00c8
:101080000f0040001b090700120020008a007800b2
:10109000c0fb2f000f004000000807006fb2970050
:1010a000ffb297000fbb97009fbb9700dfad970083
:1010b0000fa597000900e000090032000a855500dd
:1010c000cfd5de000402450085824d0006834d0029
:1010d00087834d000100320004044400880c78002e
:1010e0004f05be004f04be000080fa00000006005d
:1010f0000001eb00d2ff070032133700120020007e
:10110000cfff07002f13370022002000ccff37004d
:10111000800078001000200002022000828f500022
:1011200004003200e9805000e48f500001003600d6
:101130000000eb00000006000800fa00889fbe00d7
:101140008a9fbe000004780081057800fe004400fc
:101150001100780038119000820f50000300310018
:10116000b084fb0080087800030037000800780096
:101170000509070080047800b0022000808f540029
:10118000040032000005eb00d0022000808f5400e4
:101190001b003a00d982b20009f0a7008904ea00d6
:1011a0008904e9004f4dde00fe0044001100780084
:1011b00038119000820f500003003100b084fb0012
:1011c000800878000300370008007800ee08070068
:1011d0008004780000fd2f0009004000e90f500056
:1011e000070036000b00e0000500320038109000c8
:1011f0000000e000020032007e0044001008e90018
:1012000000fd2f00090040008005eb00e90f5000b1
:1012100013003600381090000000e0007400320027
:101220007e044400180ce900710037006a59b900c7
:1012300082054000fe004400110078003811900043
:10124000820f500003003100b084fb00800878005a
:101250000300370008007800cb08070080047800fe
:1012600000fd2f0009004000e90f500003003e0080
:10127000b1cc2000818f5500ecff3400615ab900d9
:10128000612bb90084bf9f0095bf9f00a6bf9f0040
:10129000b7bf9f0020003700a400200005002000f9
:1012a0006033b8000fb897009fb897002fb9970028
:1012b000bfb997008a180700cfcdde000082440036
:1012c00081824d0002834d0083834d000403b100f1
:1012d0000580b1000680b1000780b10084bf9f0087
:1012e00095bf9f00a6bf9f00b7bf9f00fe004400b0
:1012f0001100780038119000820f50000300310077
:10130000b084fb00800878000300370008007800f4
:101310009d0807008004780000fd2f0009004000b0
:10132000e90f500018003e00d07a240011ae2700cb
:1013300042e12a00731420000fba97009fba970069
:101340002fbb9700bfbb97000020e10001a8e10080
:1013500002b0e10003b8e100cfff34000a0037001b
:101360007e01440012007800910f5000030031000c
:10137000b084fb0000097800030037000800780003
:1013800081080700800478000903b1006102200091
:1013900088804000e98f5400f1ff36001100e00022
:1013a000020032007e044400180ce9000a00e0004c
:1013b000160032006000b8006011b8000fba970044
:1013c0009fba97002fbb9700bfbb97000402500045
:1013d00085825800060359008783590084bf9f0007
:1013e00095bf9f00a6bf9f00b7bf9f0007003700b3
:1013f0006000b800020020000300280080bf9f00aa
:1014000091bf9f00a2bf9f00b3bf9f000fb897007e
:101410009fb897002fb99700bfb997004f05be003e
:101420004f04be000080fa00000006000f04b00068
:10143000889fbe008a9fbe008c9fbe008e1f7800d2
:1014400000067800b1a79f00c29f9f00a3a79f003e
:10145000b49f9f007e014600920078003c109000ef
:10146000808f5000040031003180fb0001097800ba
:101470000007eb000e0037000c0078004208070060
:10148000fbff37007e014600920078003c10900080
:10149000808f5000030031003180fb00010978008b
:1014a000020037000c007800370807001e002000fb
:1014b00001032000810f5000f2ff32006022b800cb
:1014c0006033b80094af9f00a5af9f00b6af9f00f8
:1014d000c7af9f008002eb0095a79f00e1022000ac
:1014e000810f500025003a007e01460092007800ee
:1014f0003c109000808f5000050031003180fb00cf
:10150000010978006044b8006055b8001200370047
:101510000c0078001c080700faff37007e01460027
:10152000920078003c109000808f50000300310042
:101530003180fb0001097800020037000c007800c0
:101540001108070061045400e0845c0060055d0040
:10155000e0855d001e00200001032000810f500087
:10156000eeff320098af9f00a9af9f00baaf9f0077
:10157000cbaf9f001500200095a79f006022b80008
:101580006033b800d4af9f00e5af9f00f6af9f0077
:1015900087b79f008002eb00a59f9f006022b800e4
:1015a0000600200007ff2300d49f9f00e59f9f00b7
:1015b000f69f9f0087a79f006044b8006055b80061
:1015c0006033b800f6a79f0087af9f008500370003
:1015d000e1022000810f50000e003a009fa3970007
:1015e0000700e0008c003a005fa89700efa8970082
:1015f0007fa997008fb1970090af9f00a1af9f0088
:10160000b2af9f00c3af9f001100200091a79f00c1
:101610006a00370091032000810f5000030034005e
:101620000050a0009dfa2f00808646007000200028
:10163000010020006011b8005faa9700efaa970090
:101640007fab97008fb397000020e10001a8e10075
:1016500002b0e10003b8e1000c003c007fa397005a
:101660008fab97004438dd00cc30de008100700085
:101670004430dd004feade000081460081014a006f
:10168000f2a79f0083af9f003f003700d0002000eb
:10169000010020006011b8005faa9700efaa970030
:1016a0007fab97008fb397000020e10001a8e10015
:1016b00002b0e10003b8e1001d003c006022b80068
:1016c0000600200007fb23005f989700ef98970023
:1016d0007f9997008fa19700fe1207000002be00bd
:1016e0000203be00d49f9f00e59f9f00f69f9f00ce
:1016f00087a79f006168b900951107005f9a97005e
:10170000ef9a97007f9b97008fa39700f112070035
:101710000002be000203be000800be000a01be00b7
:10172000f21107000004be000205be0016003700db
:101730000d00e00014003200af9a97000500e000b1
:1017400011003a006022b8000600200007fe2300c6
:101750005f989700ef9897007f9997008fa1970067
:10176000dc1207000002be000203be000800be003b
:101770000a01be00dd1107000004be000205be0024
:1017800016002000a69f9f005fa89700efa8970073
:101790007fa997008fb1970061004000e08048006a
:1017a00060014900e0814900d0af9f00e1af9f0098
:1017b000f2af9f0083b79f001e0020007e0146000d
:1017c000920078003c109000808f500003003100a0
:1017d0003180fb0001097800020037000c0078001e
:1017e000690707000dfd2f0080864600e98f56002f
:1017f00077ff3600800078000150a0001106b1008c
:10180000e58f500072ff3600e1022000810f50008a
:1018100072ff320001003700e00220000e00e000fd
:101820001b003a003c1090000000e0000200320073
:10183000fe0046009108e900bf9897000100e00013
:101840000c0032000000e00002003200fe00460002
:101850009108e9001fa197000200e0000900320092
:101860000000e000070032007e0646001c0ee90082
:10187000040037006022b8006033b8000c00780024
:101880001c070700afa197006118b900500037008e
:101890001fa297000400e00016003a005faa97001c
:1018a000efaa97007fab97008fb3970094af9f008c
:1018b000a5af9f00b6af9f00c7af9f0011003700d4
:1018c0007fa197008fa997004418dd00cc10de009f
:1018d000810070004410dd00f0a79f0081af9f00e1
:1018e00061024200e0824a0060034b00e0834b004b
:1018f000050037005faa9700efaa97007fab97001b
:101900008fb397008006780070002000010020004f
:101910006011b8000020e10001a8e10002b0e10080
:1019200003b8e100e6ff34000d0078000050a0008d
:1019300001072000810f500015003a00bf98970062
:101940000c007800fcfd07006022b80006002000b3
:10195000070028000400e1000588e1000690e1008e
:101960000798e10013003a00bf9997000300e000d8
:1019700007003a006022b8006033b8000c0078001d
:10198000dc0607006000b8006011b8003b013700ba
:101990003c1290006000b8006011b8000400e00044
:1019a000040032007e0646001c0ee9006000b8000c
:1019b0006011b8007fa297008faa9700e00f520035
:1019c000e08f5a0007003a00afa297006128b900e3
:1019d000e21007006011b8005f13070091100700c4
:1019e000260137001faa9700afaa97003fab9700c8
:1019f000cfab970068025200e0825a0060035b00a0
:101a0000e0835b002c0020000402d0008582d2001d
:101a10000683d2008783d2000c06e900faff3a0061
:101a2000040240008582480006034900878349007c
:101a3000d4af9f00e5af9f00f6af9f0087b79f0030
:101a4000cf9a97000500ea00cf80de006109b90057
:101a50005faa9700efaa97007fab97008fb397001c
:101a60000020e10001a8e10002b0e10003b8e100bc
:101a70000f0034002002200090668800afa297007b
:101a80006128b900b2100700f4ff2f00f5ff2f0006
:101a9000f6ff2f00f7fe27000e120700f4ff2f00bd
:101aa000f5ff2f00f6ff2f00f7fe27001a00370082
:101ab0004f9b970067f92f0007004300cf80de009f
:101ac0006109b9005faa9700efaa97007fab970062
:101ad0008fb397000020e10001a8e10002b0e1000f
:101ae00003b8e10039003d00200220009066880024
:101af000afa297006128b900951007006022b800d6
:101b00000600200007012000f21107006022b80043
:101b10000600200007012000ee110700d700370063
:101b20006022b8000600200007fe23000800be0067
:101b30000a01be00221007000c0646008d864e00ea
:101b40000000e0000d00350061064600e0864e0012
:101b50006022b8000600200007ff23000800be0036
:101b60000a01be00db1007000002be000203be0037
:101b70000800be000a01be00040037000802be00d3
:101b80000a03be000800be000a01be00d71007000d
:101b90000004be000205be005fa89700efa89700f2
:101ba0007fa997008fb1970061005000e080580036
:101bb00060015900e0815900d0af9f00e1af9f0064
:101bc000f2af9f0083b79f00020037007fa6970007
:101bd0008fae9700e00f5600e08f5e00d0ff3d0013
:101be000fca79f008daf9f003fa29700cfa2de0011
:101bf000612bb90094af9f00a5af9f00b6af9f00c7
:101c0000c7af9f0000022000010020006011b80053
:101c1000cf9a97004faede00050250008c8258002c
:101c20000c0359008c835900d49f9f00e59f9f00af
:101c3000f69f9f0087a79f005fa89700efa89700d7
:101c40007fa997008fb197000000420081804a0071
:101c500002014b0083814b00d0b79f00e1b79f008a
:101c6000f2b79f0083bf9f001faa9700afaa9700fb
:101c70003fab9700cfab97000020e10001a8e10047
:101c800002b0e10003b8e10006003400dfaa9700cb
:101c90004f9b9700068052000002b000b0a79f0043
:101ca0000b0033006000b8006011b80090af9f00d7
:101cb000a1af9f00b2af9f00c3af9f0040032000c1
:101cc000bfa09700808f500038003c000200370012
:101cd0000001eb00b2a79f0042052000bfa19700c2
:101ce000030151000000200001f823007f180700c5
:101cf0000006be002fa297006120b9001410070053
:101d00000002be000203be000c00be0094b79f009c
:101d1000a5b79f00b2b79f00c7b79f00c10f0700cc
:101d20001fb29700afb297003fb39700cfb39700b1
:101d3000361607000002be000203be0094af9f00eb
:101d4000a5af9f00b6af9f00c7af9f00bfa297008f
:101d5000ff8f520015003c006022b8006033b800cd
:101d60000800be000a01be00a90f07000000e00045
:101d70000e0032006000b8007fa39700610063008e
:101d8000e00f5000e08f580008003a007fa697004f
:101d90008fae970061064600e0864e00fca79f00cc
:101da0008daf9f006044b8006055b800afa69700a3
:101db0006168b900e60f07000002be000203be0022
:101dc000b4a79f00c5a79f00d6a79f00e7a79f00c5
:101dd0000802be000a03be003e1107000004be0058
:101de0000205be007fa097008fa89700de0f0700b6
:101df0000002be000203be003fa09700cfa09700e4
:101e00005fa19700efa19700321107000002be000a
:101e10000203be001fa89700afa897003fa9970034
:101e2000cfa99700311007000802be000a03be00c8
:101e30002e1007001faa9700afaa97003fab97008c
:101e4000cfab9700231007000004be000205be00c0
:101e50006022b8006033b8006d0f07000000e0009a
:101e600002003a0020022000906688005faa9700d6
:101e70000800be000a01be00461807004f077800a0
:101e80004f06be004f05be004f04be000f04b10058
:101e900000000600cf23b000889fbe008a9fbe00ce
:101ea0008c9fbe008e1f780000047800010078002f
:101eb000b2a79f00e39f9f0094af9f008505780025
:101ec0008006eb000b0037007e0144009200780092
:101ed00038109000808f5000030031003180fb00eb
:101ee000010978000200370008007800a605070005
:101ef0001d00200001032000810f5000f2ff32007e
:101f00000006eb006022b8006033b80094b79f0071
:101f1000a5b79f00b6b79f00c7b79f00e10220009a
:101f2000810f50002c003a007e014400920078009e
:101f300038109000808f5000090031003180fb0084
:101f4000010978006022b8006033b80094b79f00a0
:101f5000a5b79f00b6b79f00c7b79f001a0037000c
:101f60000800780088050700f6ff37001fb09700cb
:101f7000afb097003fb19700cfb19700610050001c
:101f8000e080580060015900e081590090b79f003f
:101f9000a1b79f00b2b79f00c3b79f007e01440066
:101fa0009200780038109000808f500003003100bc
:101fb0003180fb000109780002003700080078003a
:101fc000710507001d00200001032000810f500053
:101fd000e6ff32001c0020006011b800c29f9d0087
:101fe000d39f9d008004eb006022b8006033b800ee
:101ff000d4af9f00e5af9f00f6af9f0087b79f006b
:10200000090778000905780053003700810f500058
:102010000c003a000c00e00059003a005fa897005d
:10202000efa897007fa997008fb1970090b79f0006
:10203000a1b79f00b2b79f00c3b79f001c0020004c
:102040003b003700010320005faa9700efaa97002a
:102050007fab97008fb3970061024200e0824a0095
:1020600060034b00e0834b00d4af9f00e5af9f00bf
:10207000f6af9f0087b79f00c3072000830f57006c
:1020800023003c00810f500001003200dfac9700bc
:10209000c276dd000a00e0001100320085db2f006f
:1020a0008f8242008d8642006102b9000403b100b4
:1020b0000580b100a2002000030020001d00be002a
:1020c000d4b79f00e5b79f007c0f07005fb2970071
:1020d000efb29700801e420081964a00050037004b
:1020e00086db2f000f0343008d064300cf91de00f7
:1020f000828ebe000a05e8001d002000e90f550091
:102100000b003a000d0747000005eb000800370000
:10211000810f5000060032004f909700df9097002b
:102120000000a000c0979f00d1979f00c9452000e4
:102130007e0144009200780038109000808f50009b
:10214000030031003180fb000109780002003700f4
:10215000080078000c05070002fd2f000001410077
:10216000e1022000e90f5100a8ff3600810f500066
:10217000a8ff32000c00e000030032000a00370024
:10218000e0022000080037005faa9700efaa97003e
:102190007fab97008fb3970094b79f00a5b79f00c0
:1021a000b6b79f00c7b79f000d00e00028003200bf
:1021b000000178000250a00051062000810f51005c
:1021c00023003a008b00780008007800dafb070053
:1021d0006022b80006002000070028000400e1008b
:1021e0000588e1000690e1000798e1000b003a0045
:1021f0000b00e00021003200381290006000b800af
:102200006011b8000400e000040032007e044400c5
:10221000180ce9006000b8006011b8001fb2970008
:10222000afb297003fb39700cfb3970000024200d0
:1022300081824a0002034b0083834b0094b79f00c6
:10224000a5b79f00b6b79f00c7b79f001200370021
:102250000000e00005003500381090000000e000ac
:10226000020032007e0044001008e9000d00e0008a
:1022700009003a0060012000906688006022b800e2
:102280006033b800080078009a0407006000b800c6
:102290006011b800780337004f9e9500df9e9500cf
:1022a000e00f5600e08f5e0007003a009faa9700fb
:1022b0006128b900a90e07006011b80026110700b7
:1022c000580e07006c0337001fb09700afb097009f
:1022d0003fb19700cfb197005faa9700efaa970090
:1022e0007fab97008fb397000400e1000588e10001
:1022f0000690e1000798e10020003a0090002000dd
:10230000010020006011b8001fb29700afb2970023
:102310003fb39700cfb397000020e10001a8e10090
:1023200002b0e10003b8e10014003c00bfa2970036
:10233000fe8f52000a003c000c00be00050378002e
:102340000603e900030033008100d1000080d300c0
:10235000fbff3700e00f5000e08f580007003a0005
:102360009fab97006138b900790e07000004be00ea
:102370000205be000c00be006000370022002000f5
:102380006f9e9700110009000206d8000000ea00c5
:10239000cf80de006109b9001fb29700afb297008d
:1023a0003fb39700cfb397000020e10001a8e10000
:1023b00002b0e10003b8e1000f0034002002200069
:1023c000906688009faa97006128b900600e0700f8
:1023d000f4ff2f00f5ff2f00f6ff2f00f7fe270078
:1023e000bc0f0700f4ff2f00f5ff2f00f6ff2f00b2
:1023f000f7fe27008e0037006f9b970067f92f00cc
:1024000007004300cf80de006109b9001fb29700ca
:10241000afb297003fb39700cfb397000020e10021
:1024200001a8e10002b0e10003b8e1000d003d00a9
:1024300020022000906688009faa97006128b900ba
:10244000430e07006022b8000600200007012000ac
:10245000a00f07006022b80006002000070120003e
:10246000730037000a00e0000e0032000a00370057
:102470004274dd0086db2f000f0343000804430095
:10248000a2002000030020001800be008b0e0700f1
:10249000008cbe000a05e800e80f5500f4ff340088
:1024a0000e07e8009fb39700e88f540002003c003d
:1024b000878f5400050034004270dd008cdb2f0054
:1024c0000f064600000046005c0037009fb69700ec
:1024d000f18f5600f8ff3c00e98f560009003a00e2
:1024e0001fa997006110b900190e07000004be0073
:1024f0000205be004f989500df9895001a0e070060
:10250000470037009fb19700e88f51001c003c0046
:102510001faa97006120b9000d0e07000004be003d
:102520000205be004f989500df9895000e0e07003b
:102530000002be000203be000800be000a01be0089
:10254000640f07000004be000205be009fb29700a2
:10255000688012004200dd0081c22000008040003f
:102560001000be00fa0d07000002be000203be000c
:102570000800be000a01be00a70e0700be02370019
:102580003fa397007b004300d2ff2f009fb397002b
:1025900002b9b90002014000fe0f51000a003c00e0
:1025a0004f989500df9895000201e9000300330081
:1025b0008100d1000080d300fbff3700e00f500006
:1025c000e08f5800bcff3a001fae97006160b90071
:1025d000df0d07000004be000205be004f98950005
:1025e000df989500e00d07000002be000203be0068
:1025f0000800be000a01be00360f07000004be003e
:102600000205be009fb697006a8056004200dd00ba
:1026100081c22000008040001000be00cc0d0700e9
:102620000002be000203be000800be000a01be0098
:10263000280f0700900237000e07e9004001be0096
:10264000e00f5100e08f5900fbff320094002000a2
:102650009fb09700110009008400d80001027800a3
:102660000001eb00d2af9f000400e00052003200f6
:102670009fb197000300e00001003d0069024200a5
:10268000680012004200dd0081c22000008040008e
:102690001005be0046db2f000f0343006044b80066
:1026a0008002eb00d5af9f00c4a79f000800be00ca
:1026b00085047800060478000002be002d00370073
:1026c0005806be000a01be000c00be00d4b79f0031
:1026d000e5b79f00e60d07005fb29700efb29700e5
:1026e0000403400085834800068cbe000a01be003a
:1026f00000a02c00a1b92300f6b79f0087bf9f0060
:10270000340d07000002be000a01be000c00be002e
:10271000d4b79f00e5b79f00e50d07000001be009c
:102720005fb29700efb297000400be00e30d070010
:102730000002be000900e8007fb397008fbb97003e
:102740005fae97008c8f540009003a00e00f5300f1
:10275000e08f5b0006003a0080067800fd07b200bb
:10276000ddaf9f009fb09700e980500091b79f00b8
:10277000800478008e8f5400d1ff3a000404be001c
:102780004fa29700e00f5400e08f5c00060032007b
:102790004270dd0082db2f000f014100000041008c
:1027a0000888be000e07e800690212009fb197007a
:1027b0008481410093b79f000002eb00c4a79f00f3
:1027c000dfae97006c003700cfa29700fd82520069
:1027d000c5a79f000e06e900fc07b2006033b800f1
:1027e000d6af9f00e7af9f004260dd0087db2f0080
:1027f0008f83430080834300d7a79f001704be0048
:102800006055b800cd55dd004348de008b057000f3
:102810004d4ddd004340de000a057000cd44dd0073
:102820000004eb005fa99700efa99700080441009e
:102830008984490060054d00e0854d0004a02c000e
:10284000a5b923006033b8000440e10005c8e100e9
:1028500006d0e10007d8e1000e0036000800be00f7
:102860000a01be00b5120700d0af9f00e1af9f0084
:1028700004a02c00a5b923006033b8000800be00f6
:102880000a01be00b4120700dfa39700808bbe00d0
:10289000050037005fa097000888be006011b800ef
:1028a000d2af9f00e3af9f000e00e900f007b20037
:1028b000800f56000b003a008d0f56000e003200bc
:1028c0004260dd0083db2f008f81410000804100ea
:1028d0001000be00e00f5000e08f5800ed01320004
:1028e000020037008d0f5600030032000c06e9008d
:1028f000fc07b200bcff37005faa9700efaa970061
:10290000e00f5200e08f5a001b0032009fb2970088
:10291000e982420095b79f008d06e900fd07b200ed
:102920008e8f56000d003a000d07e900fe07b20039
:102930000e00e900f007b2004200dd0086db2f0048
:102940000f03430000004300c270dd00810043001c
:102950001001be0031187100219071004268dd0045
:1029600083db2f008f814100008041005faa970028
:10297000efaa97000488be009fb29700f18f520023
:1029800091ff3400f28f520009003a004269dd00e5
:1029900086db2f000f03430002014300e005270000
:1029a00091082000b20f1000a28f180086ff360099
:1029b0008d03780042c420000000eb008700400037
:1029c000f107b2008e8f50000d003200c208dd000a
:1029d00083db2f008f814100818041001104be0004
:1029e0005202be00840f5400858f5c000400390041
:1029f0000d003e000000e800e20f5000efff3a003b
:102a00001fb29700f20f520007003a00d7af9f00a5
:102a10006044b8006055b8008006eb000800be00b6
:102a20000a01be0067003700990020009fb297009e
:102a3000fb8f520001003c00190020004fa39700bb
:102a400009034300c6a79f00100020000900dd0015
:102a50000000e9006101b900d2a79f00e3a79f0031
:102a60000aa02c00abb92300890178008301e9009a
:102a7000030033008b85d1000a85d300fbff3700ac
:102a8000070478006000b800d0af9f00e1af9f005e
:102a90000a02be001fb59700870578002d00370099
:102aa000c240dd0086db2f000f034300810043009e
:102ab0001101be000203be00090678000c06e90001
:102ac000030033008703d1000683d300fbff3700e8
:102ad0005fae9700efae97000603460087834e0077
:102ae0008688be006fa0970083066000dfa0970075
:102af000028660000401be000c00be00d4b79f0037
:102b0000e5b79f00f6b79f0087bf9f00eb0c07005b
:102b1000d0af9f00e1af9f000800e8005fb29700d0
:102b2000efb297007fb397008fbb97008b0f5400d5
:102b300006003a00e00f5300e08f5b0003003a000c
:102b400080057800fb07b200690555000004780095
:102b5000f807b2008e0f5400d1ff3a008b037800c3
:102b60009ab79f005fa89700efa89700e00f50006a
:102b7000e08f58008fff32000e01e800f207b2002c
:102b8000870f5100070032004277dd0083db2f0002
:102b90008f8141000e874100008fbe000207780040
:102ba00084ff37000e00e900f007b2004200dd00ac
:102bb00084db2f000f024200000042001000a00042
:102bc0007cff3700dfaa970005864600fc07b200ad
:102bd0008e0f560009003a000e07e800fe07b2000b
:102be0000e02e9004222dd0086db2f000f034300c6
:102bf00004024300000aeb00341278006022b8009f
:102c000056d62c00d71c2400b20d07000004be00cd
:102c10000205be004266dd0087db2f008f83430084
:102c20000c8643001c00be004f0c07000002be00d3
:102c30000203be000800be000a01be00ab0c070084
:102c40008d06e800e28f5600deff3a000004be0069
:102c50000205be001fae97006160b9003c0c070082
:102c60000002be000203be000800be000a01be0052
:102c7000980d07000002be000203be00d4a79f000b
:102c8000e5a79f00f6a79f0087af9f00cfa2970000
:102c90005503b000c59f9f006f9b970006835200ad
:102ca000d69f9f00bfa39700868f53000600340075
:102cb0000600e0000b003500060678001d0020002d
:102cc0009db79f00030037003fa697000000eb0070
:102cd00090b79f0040032000800f560037003c0053
:102ce000030037001100200091b79f000006eb00a1
:102cf000920620000c0151000000200001f8230082
:102d00007a140700c70b07005fa29700efa2970095
:102d10007fa397008fab97003c1207000002be0014
:102d20000203be00f49f9f0085a79f0096a79f0007
:102d3000a7a79f00520320000c01510000002000b3
:102d400001f8230069140700b60b07000002be005b
:102d50000203be005fa09700efa097007fa197003d
:102d60008fa99700cb1207000004be000205be0029
:102d70000002be000203be005fa09700efa0970014
:102d80007fa197008fa99700520c07007f9a9700a8
:102d90008fa297001fa39700afa39700530c0700c3
:102da0000002be000203be00d4a79f00e5a79f005b
:102db000f6a79f0087af9f00080037006000b800ab
:102dc0006011b800f09f9f0081a79f0092a79f000d
:102dd000a3a79f000004be000205be00dfa8970065
:102de0000180e800f007b2008e0f50004e00320064
:102df0004200dd0082db2f000f0141000000410096
:102e00001001be00f04f2600d1dc2100800f5100e0
:102e1000818f59000e003e00e00f5100e08f5900f5
:102e200005003a00dfa9970063804100f007b20077
:102e30008e0f5000250032001faa97006120b900b4
:102e4000c60b07000200200003e82300160037002d
:102e500000502600d1dc2100800f5100818f5900e5
:102e6000030032009faa97006128b9000b003700c9
:102e70005fab970063014300f207b2009fab97007e
:102e80006138b9008e0f510004003a00b30b0700ff
:102e90000200200003f0230003003700af0b0700ff
:102ea0000200200003f423002b0e07005d0b070037
:102eb0000002be000203be000800be000a01be0000
:102ec0000a0c07000004be000205be0050032000eb
:102ed0000c005000e10f5000130034006022b800d5
:102ee0000600200007ff23000800be000a01be0004
:102ef000681207006022b8006033b800440b070076
:102f00000000e00008003a006022b800060020003f
:102f100007ff23000800be000a01be00f30b0700f4
:102f20000004be000205be003fa09700e3061000ab
:102f3000ef989700818656000802be000a03be0083
:102f40005fa09700efa097007fa197008fa997003f
:102f5000e60b07007f9a97008fa297001fa39700a8
:102f6000afa39700db0b07000002be000203be0008
:102f700094af9f00a5af9f00b6af9f00c7af9f0063
:102f800064805600cf98970001f0a100810f500097
:102f900033003c000400be00b61107006022b800f8
:102fa0000600200007342400050b07000000e000a5
:102fb0001b0035009fb297000500e00007003200bb
:102fc0005f9b970006066e000cf0a7000c06ea0057
:102fd0000c06ea004f66de009cb79f006022b80036
:102fe0000600200007fe23001fa89700afa8970047
:102ff0003fa99700cfa99700b60c07000002be00ba
:103000000203be0094af9f00a5af9f00b6af9f0024
:10301000c7af9f00cfa297008502e800c5a79f0019
:103020004fa097004003b0008d0f50000a003d00f4
:103030001fb397000600e000090032006022b800cc
:103040006033b8000800be000a01be00f00a0700a5
:103050000000e0000200320020022000906688009c
:103060004fa297001fa89700afa897003fa997000d
:10307000cfa99700c71307004f0778004f06be007f
:103080004f05be004f04be00ef1fb100ef03b100bb
:10309000000006000c07780014fe3700e4874700a4
:1030a000889fbe008a9fbe008c9fbe008e1f780046
:1030b00000047800020778000100e000fa00350003
:1030c000bbf62f008a012000e18f5000040034007d
:1030d000e28f5000f4003a00ebbc2f005a032000ae
:1030e000fe0044001100780038119000820f50005b
:1030f00003003100b084fb00800878000300370033
:10310000080078002001070080047800090078009a
:10311000fff707000000e000f1ff3a00b0022000d6
:10312000808f5400060032001c002000d0022000d6
:10313000808f54000f003a002c002000010037005f
:103140000006eb0061061600fe0044001100780046
:1031500038119000820f500003003100b084fb0052
:103160008008780003003700080078000601070097
:103170008004780091c120008006eb001200370027
:10318000e78f56000d0032007e01440012007800e7
:10319000b8119000830f500003003100b084fb0091
:1031a00000097800050037000800780081bf9f0003
:1031b000f5000700800478008fb897008d06e800be
:1031c000e88f56001d003200090178000250a0006f
:1031d0005100fb00800f5100e9ff32000d00780024
:1031e000e38f560006003200e88f560013003200cd
:1031f000e38f5600170036000e00e000ba003200e0
:10320000b81090000100e000020032007e0144008e
:103210001209e9000e00e000080032000500370046
:103220000100e000020032007e0144001209e900c2
:103230000000e900e30f5000f9ff3a00e10f4600fb
:103240009c003a006000b8000200200003ff2f003d
:103250009f00370021c220000d00e0001300320063
:10326000a1003700e28f56000d0032007e014400bd
:1032700012007800b8119000830f50000300310055
:10328000b084fb00000978000500370008007800d2
:1032900081bf9f00bc000700800478008fb89700b2
:1032a0008d06e800e38f5600060032000901780021
:1032b0000250a0005100fb00800f5100e9ff3200d6
:1032c000890037007e014400920078003810900099
:1032d000808f50000700310080c2b3003140680089
:1032e0000080fb000000ea004f00de0001097800ca
:1032f0000700370008007800a30007008082b200b2
:1033000000f0a7000000ea000000ea004f00de0025
:10331000190020000004e000060032003810900080
:103320000000e000670032007e044400180ce90051
:10333000640037007e01440092007800381090004d
:10334000808f5000030031003180fb0001097800bc
:1033500002003700080078008b00070001fd2f00f5
:1033600080804000e98f50000b003600f1fb2f00f9
:1033700080804000f98f500007003600f1f92f00df
:1033800080804000f98f500003003600f1052000d6
:10339000810f500002003a008904e800e5ff370081
:1033a00091022000810f500046003200381090003a
:1033b0000000e00002003200fe0044009108e90035
:1033c0000e00e00006003a000d0037000000e000ab
:1033d00002003200fe0044009108e9008904e9007f
:1033e0000900e000f9ff3a0036003700381090007d
:1033f0000000e000020032007e0044001008e900f6
:1034000060012000906688006022b8006033b80038
:103410000800780037000700230037000003200071
:10342000808f54001a003a007e0144009200780018
:1034300038109000808f5000030031003180fb0075
:103440000109780002003700080078004e000700ec
:103450000050a00081072000810f500007003a00b3
:103460000e0278008c0178000b0178008a00780049
:1034700008007800edf707001500370038109000bd
:103480000000e000020032007e0044001008e90065
:103490008e0278000c0278000a01be000800be000f
:1034a0007cfa07000a0037006000b8006011b8001d
:1034b000070037006000b8000200200003ff27006b
:1034c000030037006000b8000200200083ff2700df
:1034d0004f0778004f06be004f05be004f04be00e8
:1034e0004f00b100000006000d00e000bfff3a00f1
:1034f000caff3700889fbe008a9fbe004410980014
:10350000551098006610980077109800f008900009
:103510002004900001045400cfc4de00614db900c6
:1035200008189800191898002a1898003b18980055
:10353000e00f5200e08f5a00e00f5b00e08f5b006d
:103540000c0032000014900001045400cfc4de00cf
:10355000614db9000440e10005c8e10006d0e1007a
:1035600007d8e100030034006002b0000488400086
:103570000200370080109000311098004f05be0007
:103580004f04be00000006002800fa00889fbe001d
:103590008a1f780000047800f80890002800900046
:1035a00000805000081a9000981a9000281b900084
:1035b000b81b9000cf80de000402400085824800e6
:1035c000068348008783480048109000d810900078
:1035d00068119000f8119000e00f5000e08f580043
:1035e000e00f5900e08f5900050032000020e10093
:1035f00001a8e10002b0e10003b8e1000d003d00c8
:1036000008007800d4b79f00e5b79f00f6b79f0089
:1036100087bf9f0071000700800478005fb29700a9
:10362000efb297007fb397008fbb97000900e000cf
:1036300014003d007808900028019000000151001e
:103640000103200088804000cf91de0084184100f3
:103650008598490086984900878849003014980069
:10366000f0ff2f00f1ff2f000001be004014980072
:103670005114980062149800731498008084eb0031
:103680005100370061004200e0804a0060014b00b9
:10369000e0814b0090bf9f00a1bf9f00b2bf9f0081
:1036a000c3bf9f0048129000d8129000681390008a
:1036b000f813900094b79f00a5b79f00b6b79f007e
:1036c000c7b79f00e00f5200e08f5a00e00f5b0089
:1036d000e08f5b0029003200780d90000811900007
:1036e0000a0151006112b900612bb900d4af9f00eb
:1036f000e5af9f00f6af9f0087b79f001fb0970010
:10370000afb097003fb19700cfb197001fba9700b5
:10371000afba97003fbb9700cfbb970004005000a3
:1037200085805800060159008781590090af9f009d
:10373000a1af9f00b2af9f00c3af9f005faa9700e9
:10374000efaa97007fab97008fb397000020e100ae
:1037500001a8e10002b0e10003b8e1000700340075
:103760009fb297001fbb9700868152006202200023
:10377000080141000309450002003700881390004a
:103780003714980028019000f8089000810151003a
:103790000803b0001fba9700afba97003fbb97006d
:1037a000cfbb97004f98de00049c4100051c4800e9
:1037b000061c4800070c48006800b100828f5000ca
:1037c00001003e00f9f89f00090078004f057800dd
:1037d0004f04be000080fa00000006000200fa005c
:1037e000889fbe00000478000800780010000700e1
:1037f0008084eb000000e00009003a00981190007e
:1038000012002000e6805700080078000300010045
:10381000e10f500002003a002ff897008084fb006f
:10382000090078004f04be000080fa000000060086
:10383000881f780000047800400220000800400043
:10384000904078000141e90001487100d8009000e3
:1038500068009000808f500005003600b809900085
:103860000001eb00820078000800780003000100ee
:10387000740044000008eb006c0044000008eb00fa
:103880006a0044000008eb0008007800d0007800cf
:103890000118a300030032000140a00001087800d5
:1038a0000800370028019000380090000000410017
:1038b00000149800700c98000000eb000138a30081
:1038c000010032000080eb004f0478000000060089
:1038d000020037000000060000000500fdff0700a1
:1038e000806680008000eb00fbff070080668000a0
:1038f0008000eb00f8ff0700806680008000eb008e
:10390000f5ff370080007800100020000202200040
:10391000828f500004003200e9805000e48f500094
:10392000010036000000eb0000000600889fbe008a
:103930008a1f7800800478000904780088047800e1
:10394000394578000a00fb00eeff07000000e000a8
:10395000f9ff3a00b0c2b300804f550005003200b5
:10396000d0c2b3008000eb00804f550005003a0044
:10397000020037008000eb0001003700110020003a
:103980000804e8000000eb00030037006a02b900f9
:10399000020052000003b0003801fb0003fd2f00bd
:1039a00082814100e98f5100f8ff36000100e000fc
:1039b00001003a000000ea004f0578004f04be0005
:1039c00000000600800078001000200002022000a5
:1039d000828f500004003200e9805000e48f5000d4
:1039e000010036000000eb0000000600889fbe00ca
:1039f0008a9fbe00000478008804780009047800db
:103a0000384578000a00fb00eeff07000000e000e8
:103a1000f9ff3a00b0c2b300804f550005003200f4
:103a2000d0c2b3000004eb00804f550005003a00ff
:103a3000020037000004eb000100370018002000ee
:103a40008904e8006000b80006003700a2002000ea
:103a50000300200019090700cfd5de000a0050003e
:103a60008b8058003905fb000a03b100e90f5500af
:103a7000f6ff36000800e00002003a006000100087
:103a8000e08018004f05be004f04be000000060095
:103a9000800078001000200002022000828f500079
:103aa00004003200e9805000e48f5000010036002d
:103ab0000000eb0000000600889fbe008a1f78000f
:103ac00000047800080578000a047800b8447800fb
:103ad0000900fb00eeff07000000e000f9ff3a00dc
:103ae000b0c2b30080cf540005003200d0c2b30092
:103af0000004eb0080cf540005003a0002003700bc
:103b00000004eb0001003700180020000a05e8005f
:103b10006000b8006011b80009003700a400200060
:103b2000050020006033b8006d0e07004fcade00ac
:103b30000900500084805800040159008481590014
:103b4000ba04fb000903b100e98f5400f3ff36000b
:103b50000800e00006003a006022b8006033b800b8
:103b60000000520081805a0002015b0083815b00eb
:103b70004f0578004f04be0000000600000006005c
:103b8000ef03b000889fbe008a9fbe008c9fbe00de
:103b90008e1f7800c09f9f00834678000100780048
:103ba000b0017800f3a79f0010007800f09f9f00fd
:103bb00021029000d4a79f00c1029000b59f9f00f2
:103bc000310790003204be002205be00d8b79f0026
:103bd000e9b79f00fab79f008bbf9f006022b80033
:103be0006033b8000800be000a01be00ef070700fe
:103bf0000000e0000b003d005fb09700efb09700c1
:103c00007fb197008fb9970003f0a200d0b79f0053
:103c1000e1b79f00f2b79f0083bf9f00d0c2b300ff
:103c200004003700ffa097000128a300080032001d
:103c3000b0c2b300004f78005fa197000201e90015
:103c4000e2a79f001300200083af9f000f00370002
:103c50007fa297000438a3000800320000c2b3001e
:103c6000004f7800dfa297008502e900e5a79f00da
:103c70001600200086af9f0004003700dfa39700e6
:103c8000e7a79f000004eb0088af9f005fb097009c
:103c9000efb097007fb197008fb99700b7ff07008b
:103ca000f4ff2f00f5ff2f00f6ff2f00f7ff27008e
:103cb0000402600085826000060361008783610062
:103cc0006000b8000200200003ff27000020e10090
:103cd00001a8e10002b0e10003b8e1000b003a00e6
:103ce0008d06fb001d04b1008fac97000900470052
:103cf000c1ca2000f98f56000100360001cb200018
:103d00007c07070000cb20001d0237000020e100e7
:103d100001a8e10002b0e10003b8e1000b003600a9
:103d20008d06fb001d04b1000fad97000a0047008f
:103d300041cb2000f98f56000100360081cb2000d6
:103d40006c07070080cb20000d02370000c3b300d2
:103d50008fad970000f77d000b00e80000014700e1
:103d60008d00fb00f3fb2f0083814000d39f9f0059
:103d700081c7b300f98f510001003e0081c5b30037
:103d8000014978000000e80080af9f006022b80081
:103d90006033b8005fb09700efb097007fb1970035
:103da0008fb99700810707000000e0005e00320035
:103db0000002eb006044b8000a0020000bff230063
:103dc00098a79f00a9a79f00baa79f00cba79f0015
:103dd00004067800050037000c06e8001fac9700c9
:103de000afac97003fad9700cfad97000802be0083
:103df0000a03be000800be000a01be003b0807001f
:103e00000002be000203be0094af9f00a5af9f005a
:103e1000b6af9f00c7af9f005fb09700efb09700ad
:103e20007fb197008fb99700600707000000e0009e
:103e3000e9ff3d009caf9f002a0037006022b800d8
:103e40000600200007fe23000800be000a01be0095
:103e5000200907006022b8006033b800530707004c
:103e60000000e00016003a006022b80006002000c2
:103e7000073524000800be000a01be00150907002e
:103e80000004be000205be006022b800060020004b
:103e9000073524005fb09700efb097007fb197001f
:103ea0008fb997000b0907000002be000203be0095
:103eb000d4b79f00e5b79f00f6b79f0087bf9f006c
:103ec0006022b8000600200007fe23000800be00a4
:103ed0000a01be00ff0807000004be000205be0084
:103ee0000c06e9000802be000a03be005fb097009e
:103ef000efb097007fb197008fb997002b070700ad
:103f00000000e000cdff35000800be000a01be0041
:103f100090a79f00a1a79f00b2a79f00c3a79f00e3
:103f20009caf9f00090037008000eb0091af9f001d
:103f30006022b8000600200007ff230094a79f001e
:103f4000a5a79f00b6a79f00c7a79f00ff9a97004d
:103f5000800120000500e000010035007f989700f7
:103f60000000e800e09f9f001fa49700afa4970007
:103f70003fa59700cfa5970098b79f00a9b79f00ce
:103f8000bab79f00cbb79f005fb49700efb497001c
:103f90007fb597008fbd97000006eb003a00370011
:103fa0001fb29700afb297003fb39700cfb397000f
:103fb0000800be000a01be0017080700b80d070080
:103fc0000002be000203be00d4af9f00e5af9f0019
:103fd000f6af9f0087b79f00310707008002780087
:103fe00085a79f001fb29700afb297003fb397001d
:103ff000cfb397005fa89700efa897007fa997001d
:104000008fb19700b30807000002be000203be0094
:104010000800be000a01be00ae0707000004be0093
:104020000205be006022b8000600200007fb230046
:104030001fb09700afb097003fb19700cfb1970086
:10404000a40807000002be000203be0094b79f0050
:10405000a5b79f00b6b79f00c7b79f000c06e80042
:10406000ff9a97000500e00007003d006022b800bd
:104070006033b8000800be000a01be00cb0607008e
:104080000000e000040032006f9b9700860f56008e
:10409000c3ff350001003700ec9f9f006022b8008d
:1040a00006002000070224001fb09700afb0970061
:1040b0003fb19700cfb19700860807000002be000d
:1040c0000203be0094b79f00a5b79f00b6b79f003c
:1040d000c7b79f000800be000a01be00b306070074
:1040e0000000e0000d0035001fb29700afb297004e
:1040f0003fb39700cfb397000800be000a01be008f
:10410000aa0607000000e00011003a008fa2970005
:104110000508a300080032000d0037006044b80015
:104120006055b80098b79f00a9b79f00bab79f0025
:10413000cbb79f00060037006000b8006011b800e0
:1041400090b79f00a1b79f00b2b79f00c3b79f0071
:104150001fb29700afb297003fb39700cfb397005d
:104160005fb09700efb097007fb197008fb99700cd
:104170005e0707000002be000203be0094b79f0066
:10418000a5b79f00b6b79f00c7b79f007bfe07008b
:104190000203be000002be00f0ff2f00f1ff2f005f
:1041a000f2ff2f00f3ff2700000462008184620009
:1041b0000205630083856300d8b79f00e9b79f00bd
:1041c000fab79f008bbf9f006000b800020020007c
:1041d00003ff27000040e10001c8e10002d0e10038
:1041e00003d8e100befe3200efa497008986e90003
:1041f0000fae97000005eb00dab79f008aa79f007b
:10420000daaf9f006c0037001fa29700afa29700a3
:104210003fa39700cfa397001fb09700afb09700c0
:104220003fb19700cfb197007b0707001c0d070037
:104230000004be000205be00990607008000780059
:104240000100e00007003a005fa897000000e000ce
:1042500004003200dfb097008100e800e1a79f0072
:104260002e0037000fa197000200e00009003a007d
:10427000dfa997000300e00006003200e0c2b300af
:1042800000777e000c06e8008d06e900140020008f
:1042900084a79f000c014700dfb29700e5a79f00ad
:1042a000050078000300370003c3b300035978000a
:1042b0000000e9000000e000fbff3a00e0a79f00db
:1042c0005fb3970006064600e98f500003003c00ec
:1042d00000032000010040000200370070052000ac
:1042e00001004000df9b9700f98f530006003e005d
:1042f000800078000150a0001106b100f98f500035
:1043000001003e000206070000777e000c06e80070
:10431000dfb097000180ea00808646001fa2970068
:10432000afa297003fa39700cfa397000800be005d
:104330000a01be00e70707000002be000203be003c
:104340001fb09700afb097003fb19700cfb1970073
:10435000e00607000002be000203be0094b79f0003
:10436000a5b79f00b6b79f00c7b79f006022b800ef
:104370000600200007fb23001fa09700afa09700b6
:104380003fa19700cfa19700d20707000004be000d
:104390000205be0098a79f00a9a79f00baa79f008b
:1043a000cba79f00dfac97008904e900d9af9f003d
:1043b0006fa59700dab79f00dfad97000b00ea000a
:1043c000ef989700810f500004003d003f9997003f
:1043d00065005100800f56008bff39008fa19700b8
:1043e0000300e0001a003a005fb297000400e0000a
:1043f00070003400ff9a97000500e0006d00340063
:104400007fa397000608a3006a003a008c004700cb
:10441000e0c2b300804878000c06e8000400780091
:1044200002c3b300826878000000e900fcff3a0094
:10443000dfb39700070646008d06e9008786560021
:1044400003003700e0c2b30000777e000c06e800ee
:104450000c0047000048eb003f9c97008800e900f3
:10446000010147000049eb008001eb009fac970081
:104470000900e00003003d008904ea0099af9f00b5
:1044800013002000120020001faa9700810378006b
:10449000000478000a00370081037800a50020009e
:1044a000110009000502d8000002be000703470002
:1044b00009c3b30009cb42000201e9008d06e900ff
:1044c0008700e9000400e000f3ff3a00e10f51002b
:1044d000f1ff32000800780001024700b2c2b300c9
:1044e0000300e00001003200d2c2b300024a7800ab
:1044f0000101e9008200470003c7b3005f9d9700f8
:10450000f90f550001003e0003c5b3008348780051
:10451000820f56000100310076050700ffa59700c5
:1045200063806500e20f500014003a000d84e9003a
:104530004240a900110034000e0078009c040700de
:104540008d06e900808646008d0647000200370090
:10455000ee6678000000e9008fa89700810f5000f8
:10456000fbff310001004700080178000103200033
:1045700024f007000001eb00d2a79f000e00780096
:104580008b0407007fa29700dfa19700000178004d
:104590008e0078004f989700cdf007004f07780005
:1045a0004f06be004f05be004f04be00ef03b10032
:1045b00000000600ffa197000348a300a1ff3a00f6
:1045c000a3ff3700ec874700889fbe008a9fbe008c
:1045d0008c9fbe008e1f78000006780001047800d2
:1045e000180790002805900098067800cdb79f0026
:1045f000b80590003202be002203be000400be00d7
:104600000601be004f18de006011b8008000eb000c
:10461000d0b79f00e1b79f00f2b79f0083bf9f0014
:10462000800478000900e000060032006000b80055
:104630006011b8000402500085825800060359003a
:10464000878359000e00e000020035000d10a10024
:10465000cdb79f000900e00005003a004fb0970079
:104660000028a30002003a000038a3000200320034
:104670008a00e900010037008a007800f8815700bd
:10468000a200200008007800290307000900e000cc
:1046900003003a00cfb097000128a30008003200c1
:1046a0000000e90000814500b1c2b3000900e0004c
:1046b00001003200d1c2b300014978000500370083
:1046c0000138a300030032000000e90001c2b3007a
:1046d00081757800480190000201e9000001510055
:1046e000808045004fb297008a0178000c00780066
:1046f00077f007009c0090000188a30004003200be
:1047000098009000810f500001003d0001007800ea
:104710004f0778004f06be004f05be004f04be0095
:10472000cf00b10000000600000006008f04b000ba
:10473000889fbe008a9fbe008c9fbe008e1f78009f
:10474000809f9f00f19f9f00c3779f00010078002a
:10475000b0007800e1a79f0010007800d0b79f005c
:10476000ff999700a3019000d3a79f007f9a97001d
:1047700044029000f4979f00ff9a9700b5069000be
:104780003204be002205be006022b8006033b800cb
:104790000800be000a01be00040507000000e0009a
:1047a00003003d000bf0a200d0c2b30004003700ac
:1047b0006fa397000628a30008003200b0c2b30020
:1047c000804e7800dfa397008703e900c7af9f0002
:1047d00010002000f0a79f000f003700efa0970007
:1047e0000138a3000800320000c2b300804e7800f8
:1047f0005fa197000201e900c2af9f0013002000f3
:10480000f3a79f00040037005fa29700c4af9f008a
:104810008002eb00f5a79f000800be000a01be0061
:10482000c1ff0700f4ff2f00f5ff2f00f6ff2f0058
:10483000f7ff270004026000858260000603610024
:10484000878361006000b8000200200003ff27009a
:104850000020e10001a8e10002b0e10003b8e1009e
:1048600010003a004f7397008600fb001104b1005e
:10487000ffa3970007804600f98f500002003e001a
:10488000c1cb20000100370001cc200099040700b3
:1048900000cc2000c6030700ffa0970001014000e4
:1048a000140037000020e10001a8e10002b0e1009f
:1048b00003b8e100120036004f7197008200fb0040
:1048c0001104b100ffa1970003804600f98f50004a
:1048d00002003e0041cc20000100370081cc2000c6
:1048e0008404070080cc2000b10307007fa297005a
:1048f000040140006fa29700dfa197001902370062
:104900006022b8006033b8000800be000a01be0093
:10491000a60407000000e000680032006000b80054
:104920000200200003ff230080af9f0091af9f0093
:10493000a2af9f00b3af9f000007eb000802be00cc
:104940000a03be00d4af9f00e5af9f00f6af9f0003
:1049500087b79f00070037000e07e8000800be0079
:104960000a01be0080af9f0091af9f00a2af9f00e1
:10497000b3af9f006022b800060020004702240069
:104980000fa897009fa897002fa99700bfa997008d
:10499000500607000004be000205be000002be0073
:1049a0000203be005fa89700efa897007fa99700b9
:1049b0008fb197007d0407000000e000e6ff3d0096
:1049c0000006eb000fac97009fac97002fad97004f
:1049d000bfad97002500370040ed2f00800f570036
:1049e00019003d000c00e00016003a006022b800fb
:1049f00006002000073524005fa89700efa8970065
:104a00007fa997008fb19700320607000002be0011
:104a10000203be00d4af9f00e5af9f00f6af9f003a
:104a200087b79f006022b8000600200007352400e9
:104a30000800be000a01be00260607000004be00f2
:104a40000205be001c0020006022b8000600200005
:104a5000470224000800be000a01be006e050700e0
:104a60000004be000205be000e07e9000802be00f9
:104a70000a03be005fa89700efa897007fa99700e0
:104a80008fb19700490407000000e000d2ff350015
:104a90000800be000a01be0080af9f0091af9f00da
:104aa000a2af9f00b3af9f005fac9700efac970041
:104ab0007fad97008fb59700080037006022b800df
:104ac0000600200007ff230084af9f0095af9f00e2
:104ad000a6af9f00b7af9f000007eb00cf72970013
:104ae0000500fb004a030700d0779f005fb39700e3
:104af000600020000600e000010035005fb0970074
:104b000071c6b300df73970081cf53000a003a00eb
:104b1000dfb097000100e0009b0132009b013700ed
:104b20008e0f50009f013c00d0af9f0052c6b300d3
:104b300082cf9f001e003700df71970083cf9f0058
:104b40000200370064c6b30084cf9f000000e80075
:104b5000d0af9f0060c6b3008fca970080cf5200cd
:104b600013003a000e00e00008003d006000b800ad
:104b70000200200003ff230080af9f0091af9f0041
:104b8000a2af9f00b3af9f000007eb0061c6b30068
:104b900081cf9f0070c6b3005f719700804f5100b6
:104ba00003003200dfa997008e814100d3af9f0040
:104bb0000faa97009faa97002fab9700bfab970053
:104bc00094b79f00a5b79f00b6b79f00c7b79f00d7
:104bd0000800be000a01be00d0b79f00e1b79f00e9
:104be000f2b79f0083bf9f000006eb000802be00e3
:104bf0000a03be00b49f9f00c59f9f00d69f9f00e1
:104c0000e79f9f00310037001fb29700afb29700b7
:104c10003fb39700cfb397005fb09700efb0970016
:104c20007fb197008fb99700fb0407009c0a07002b
:104c30000004be000205be001904070080027800cf
:104c400085a79f001fb29700afb297003fb39700b0
:104c5000cfb397000800be000a01be009d05070003
:104c60005fb29700efb297007fb397008fbb9700ba
:104c7000980407000002be000203be0007f0a20075
:104c8000d4b79f00e5b79f00f6b79f0087bf9f008e
:104c90006022b80006002000470224001fb09700e1
:104ca000afb097003fb19700cfb19700da0407008b
:104cb0000002be000203be0094b79f00a5b79f008c
:104cc000b6b79f00c7b79f000c06e800dfaa9700a1
:104cd000850f5600ccff35003f9c9700cf9c970076
:104ce0005f9d9700ef9d97006022b80006002000ae
:104cf000470124001fb09700afb097003fb1970065
:104d0000cfb19700730507000002be000203be008a
:104d100094b79f00a5b79f00b6b79f00c7b79f0085
:104d20005fb09700efb097007fb197008fb9970001
:104d30009e0307000000e0000f0035001fb297003f
:104d4000afb297003fb39700cfb397005fb0970023
:104d5000efb097007fb197008fb9970093030700da
:104d60000000e00011003a008fa297000508a300a0
:104d7000080032000d0037006000b8006011b80074
:104d800090b79f00a1b79f00b2b79f00c3b79f0025
:104d9000060037006022b8006033b80094b79f0067
:104da000a5b79f00b6b79f00c7b79f001fb2970077
:104db000afb297003fb39700cfb397000800be0093
:104dc0000a01be00490407000002be000203be0043
:104dd00084a79f0095a79f00a6a79f00b7a79f0045
:104de00050c6b3008fca970080cf520003003a002c
:104df0000003eb00d6b79f0001003700deb79f002d
:104e00007fa697000000eb0090b79f00909f9f0047
:104e1000b09f9f008e007800e1979f0066003700ea
:104e20000faa97009faa97002fab9700bfab9700e0
:104e30000fa097009fa097002fa19700bfa19700f8
:104e400075040700160a07000004be000205be0034
:104e50009303070000017800efa197000348a30027
:104e60000c003a000200e0000a003a0070c6b300ed
:104e70005f729700804f520006003a00dfb2970041
:104e80000500e00003003d001fb397000607e8009f
:104e9000200037009f9b97000700e0000b003a00be
:104ea0005fb097000000e00008003d00e0c2b300e2
:104eb00080767e000c06e800cfa897008100e9000c
:104ec000c1af9f0013002000939f9f008c8046007d
:104ed0001fb797000300370000c3b3008058780065
:104ee0000e07e9000e00e000fbff3a001fb297003a
:104ef000040646000c80460005c3b3000548410087
:104f00000c06e8000480ea004fab97000003430062
:104f1000c6af9f000faa97009faa97002fab9700dc
:104f2000bfab97000800be000a01be00e9040700fd
:104f30000fa297009fa297002fa39700bfa39700ef
:104f4000e40307000002be000203be0007f0a20057
:104f500084a79f0095a79f00a6a79f00b7a79f00c3
:104f60006022b80006002000470224000fa8970026
:104f70009fa897002fa99700bfa9970026040700b4
:104f80000002be000203be0084af9f0095af9f00e9
:104f9000a6af9f00b7af9f00dfb297008502e90080
:104fa000d5b79f003f9b97000603e800b69f9f0080
:104fb0008e03780097b79f003f989700dfa897006f
:104fc000810f500005003d007f999700420090003e
:104fd00065005000800f560091ff39006f979700d1
:104fe0009f9997000300e00006003a006fa2970027
:104ff0000448a30003003200e0c2b30080767e00c4
:105000000c06e8000c8046000048eb0051c6b300d7
:105010008fca970081cf520036003a007f939700e5
:105020008600e900018146000049eb008001eb00a9
:105030000e00e00002003d000e07ea001300200011
:105040002200200081037800cfaa97000004780096
:105050000b00370081037800a40020001100090034
:105060000407d80001027800000778000783460093
:1050700000c3b300004b42000201e9008502e900d1
:105080008700e9000e00e000f2ff3a000200e000b5
:10509000f0ff3c00c5af9f00080078000182460089
:1050a000b2c2b3000300e00001003200d2c2b3007c
:1050b000024a78000101e90082804600cf71970022
:1050c0000302fb001404b10053c6b300f90f5200f1
:1050d00001003e0053c4b300834878004faa9700f4
:1050e0000482e900c4af9f00820f56000100310026
:1050f00080020700efa2970063806200e20f500079
:1051000013003a004fab97000600e0001000340097
:105110000d007800a601070004003700cfab970010
:1051200087804600ed7078000000e900ffa197003d
:10513000830f5000f9ff3100038046004fa997000c
:10514000010320002fed07000002eb00d4a79f0011
:105150000d007800960107006fa29700dfa197006d
:10516000000178008d0078000f989700d8ed0700b7
:105170004f0778004f06be004f05be004f04be002b
:105180008f04b1000000060010002000e40f47006b
:1051900063fe3d00d0af9f0055c6b30085cf9f0092
:1051a00083fe37000e00e00066fe3500d0af9f00a2
:1051b00076fe37000200fa00889fbe008a9fbe007c
:1051c00000057800010478000200780018019000c2
:1051d000a805900098007800b1bf9f00b804900027
:1051e0000200e000020035000110a100b1bf9f00e5
:1051f000ea815700820020008b0078003002be0058
:105200002003be0008007800490007003fb997005e
:10521000f0006100030032000000e90001c3b300a8
:10522000817478003fb99700e80061000300320004
:105230000000e90001c2b3008174780048019000c9
:105240000201e90000015100808044003fba97004c
:105250008b0178000a0078009ded07009a0090000d
:105260000188a3000400320098009000810f5000d4
:1052700001003d00010078004f05be004f04be0054
:105280000080fa0000000600ea874700889fbe0001
:105290008a9fbe008e1f780000047800030078000b
:1052a0007287570084e2260055c72600049fbe007f
:1052b000c3962200030f78006c875700004feb0065
:1052c00011059000a1049000910578000200e00013
:1052d0000200320002077800010037007287570091
:1052e0000000e00002003a000e00780030010700e4
:1052f0000a00e000030035008a0f5000010036006c
:105300000a0078000b02780089017800000178001b
:105310008e007800080078006ded07004f077800d8
:105320004f05be004f04be00af00b10000000600f4
:10533000f4874700889fbe008a9fbe008c9fbe00f6
:105340008e1f78000605be000404be0081bf9f00ca
:1053500082b79f00f3b79f00b0009000e1b79f00b5
:105360001301780092b79f009006900040069000cd
:105370000c06e9000d00e00001003d001d002000ca
:10538000efb197000c8041000048eb001e002000a8
:105390001f0037000c06e9000fb09700cf80de0039
:1053a0006109b900a0b79f00b1b79f00c2b79f00c5
:1053b000d3b79f000203be000002be000800be007b
:1053c0000a01be00e407070000077800efb097006d
:1053d0000c80400003c3b300034847008d06e9007a
:1053e0000fb897000000e90080bf9f002fb2970020
:1053f000bfb297004fb39700dfb397000800be001d
:105400000a01be00cd0707000205be000004be0071
:105410000c00e0000d003200e00f5400e08f5c0053
:10542000e00f5d00e08f5d00daff3a000d00e00064
:10543000d8ff3c008fb897000100e0000300340063
:105440001fb197000218a300d2ff3a000e00e0003f
:1054500002003a00ffb197001340a1000c00780051
:105460004f0778004f06be004f05be004f04be0038
:105470004f01b100000006000200fa00889fbe0044
:105480008a9fbe0080047800010478000200780042
:10549000180190002805900098007800b1bf9f0087
:1054a000b80590000200e000020035000110a100e4
:1054b000b1bf9f00ea815700a20020008a00780057
:1054c0003002be002003be000800780098ff0700ed
:1054d000480190000201e900000151008080450070
:1054e0003fba97008a01780009007800f8ec0700bd
:1054f000990090000188a3000400320098009000f9
:10550000810f500001003d00010078004f05be00f2
:105510004f04be000080fa0000000600fa87470032
:10552000889fbe008a9fbe008c9fbe008e1f7800a1
:10553000800478000104780082057800180190004a
:105540002805900018077800b80090000200e000dd
:10555000020035000e10a1000100370012002000eb
:1055600070006700e0b79f00090032003b02be00f8
:105570002b03be00e00f5200e08f5a00e00f5b00eb
:10558000e08f5b00020032008a86e90001003700ec
:105590008a067800e8026700f5b79f000100320034
:1055a0008d06e9003b02be002b03be00e4af9f0066
:1055b000f5af9f0086b79f0097b79f004806900001
:1055c0000c06e9000c8040000048eb00efb29700a9
:1055d0007fb297008903780081047800d8af9f00dc
:1055e000020478008bbf9f008a057800034578008d
:1055f0002a0037000c06e9006fab97006f006300cc
:10560000e90f500002003c000003b0000100370029
:105610007005b0000a03fb001604b100f90f530037
:105620000c003e00000378000650a0001606b100f2
:10563000f90f530007003e00b4b79f00a5b79f00c5
:10564000c7b79f0032010700cfb39700afb29700f2
:105650003fb2970080747e000804e9008d06e900df
:105660006fa89700ffa897000fb197009fb1970010
:10567000460020008301d1000281d3008180d30045
