:020000040000fa
:080000000002040000000000f2
:020000040000fa
:04000800f4020000fe
:020000040000fa
:04000c00f4020000fa
:020000040000fa
:04001000f4020000f6
:020000040000fa
:04001400f4020000f2
:020000040000fa
:04001800f4020000ee
:020000040000fa
:04001c00f4020000ea
:020000040000fa
:04002000f4020000e6
:020000040000fa
:04002400f4020000e2
:020000040000fa
:04002800f4020000de
:020000040000fa
:04002c00f4020000da
:020000040000fa
:04003000f4020000d6
:020000040000fa
:04003400f4020000d2
:020000040000fa
:04003800f4020000ce
:020000040000fa
:04003c00f4020000ca
:020000040000fa
:04004000f4020000c6
:020000040000fa
:04004400f4020000c2
:020000040000fa
:04004800f4020000be
:020000040000fa
:04004c00f4020000ba
:020000040000fa
:04005000f4020000b6
:020000040000fa
:04005400f4020000b2
:020000040000fa
:04005800f4020000ae
:020000040000fa
:04005c00f4020000aa
:020000040000fa
:04006000f4020000a6
:020000040000fa
:04006400f4020000a2
:020000040000fa
:04006800f40200009e
:020000040000fa
:04006c00f40200009a
:020000040000fa
:04007000f402000096
:020000040000fa
:04007400f402000092
:020000040000fa
:04007800f40200008e
:020000040000fa
:04007c00f40200008a
:020000040000fa
:04008000f402000086
:020000040000fa
:04008400f402000082
:020000040000fa
:04008800f40200007e
:020000040000fa
:04008c00f40200007a
:020000040000fa
:04009000f402000076
:020000040000fa
:04009400cc0200009a
:020000040000fa
:04009800f40200006e
:020000040000fa
:04009c00f40200006a
:020000040000fa
:0400a000f402000066
:020000040000fa
:0400a400f402000062
:020000040000fa
:0400a800f40200005e
:020000040000fa
:0400ac00f40200005a
:020000040000fa
:0400b000f402000056
:020000040000fa
:0400b400f402000052
:020000040000fa
:0400b800f40200004e
:020000040000fa
:0400bc00f40200004a
:020000040000fa
:0400c000f402000046
:020000040000fa
:0400c400f402000042
:020000040000fa
:0400c800f40200003e
:020000040000fa
:0400cc00f40200003a
:020000040000fa
:0400d000f402000036
:020000040000fa
:0400d400f402000032
:020000040000fa
:0400d800f40200002e
:020000040000fa
:0400dc00f40200002a
:020000040000fa
:0400e000f402000026
:020000040000fa
:0400e400f402000022
:020000040000fa
:0400e800f40200001e
:020000040000fa
:0400ec00f40200001a
:020000040000fa
:0400f000f402000016
:020000040000fa
:0400f400f402000012
:020000040000fa
:0400f800f40200000e
:020000040000fa
:0400fc00f40200000a
:020000040000fa
:04010000f402000005
:020000040000fa
:04010400f402000001
:020000040000fa
:04010800f4020000fd
:020000040000fa
:04010c00f4020000f9
:020000040000fa
:04011000f4020000f5
:020000040000fa
:04011400f4020000f1
:020000040000fa
:04011800f4020000ed
:020000040000fa
:04011c00f4020000e9
:020000040000fa
:04012000f4020000e5
:020000040000fa
:04012400f4020000e1
:020000040000fa
:04012800f4020000dd
:020000040000fa
:04012c00f4020000d9
:020000040000fa
:04013000f4020000d5
:020000040000fa
:04013400f4020000d1
:020000040000fa
:04013800f4020000cd
:020000040000fa
:04013c00f4020000c9
:020000040000fa
:04014000f4020000c5
:020000040000fa
:04014400f4020000c1
:020000040000fa
:04014800f4020000bd
:020000040000fa
:04020800f4020000fc
:020000040000fa
:04020c00f4020000f8
:020000040000fa
:04021000f4020000f4
:020000040000fa
:04021400f4020000f0
:020000040000fa
:04021800f4020000ec
:020000040000fa
:04021c00f4020000e8
:020000040000fa
:04022000f4020000e4
:020000040000fa
:04022400f4020000e0
:020000040000fa
:04022800f4020000dc
:020000040000fa
:04022c00f4020000d8
:020000040000fa
:04023000f4020000d4
:020000040000fa
:04023400f4020000d0
:020000040000fa
:04023800f4020000cc
:020000040000fa
:04023c00f4020000c8
:020000040000fa
:04024000f4020000c4
:020000040000fa
:04024400f4020000c0
:020000040000fa
:04024800f4020000bc
:020000040000fa
:04024c00f4020000b8
:020000040000fa
:04025000f4020000b4
:020000040000fa
:04025400f4020000b0
:020000040000fa
:04025800f4020000ac
:020000040000fa
:04025c00f4020000a8
:020000040000fa
:04026000f4020000a4
:020000040000fa
:04026400f4020000a0
:020000040000fa
:04026800f40200009c
:020000040000fa
:04026c00f402000098
:020000040000fa
:04027000f402000094
:020000040000fa
:04027400f402000090
:020000040000fa
:04027800f40200008c
:020000040000fa
:04027c00f402000088
:020000040000fa
:04028000f402000084
:020000040000fa
:04028400f402000080
:020000040000fa
:04028800f40200007c
:020000040000fa
:04028c00f402000078
:020000040000fa
:04029000f402000074
:020000040000fa
:04029400cc02000098
:020000040000fa
:04029800f40200006c
:020000040000fa
:04029c00f402000068
:020000040000fa
:0402a000f402000064
:020000040000fa
:0402a400f402000060
:020000040000fa
:0402a800f40200005c
:020000040000fa
:0402ac00f402000058
:020000040000fa
:0402b000f402000054
:020000040000fa
:0402b400f402000050
:020000040000fa
:0402b800f40200004c
:020000040000fa
:0402bc00f402000048
:020000040000fa
:0402c000f402000044
:020000040000fa
:0402c400f402000040
:020000040000fa
:0402c800f40200003c
:020000040000fa
:0402cc00f402000038
:020000040000fa
:0402d000f402000034
:020000040000fa
:0402d400f402000030
:020000040000fa
:0402d800f40200002c
:020000040000fa
:0402dc00f402000028
:020000040000fa
:0402e000f402000024
:020000040000fa
:0402e400f402000020
:020000040000fa
:0402e800f40200001c
:020000040000fa
:0402ec00f402000018
:020000040000fa
:0402f000f402000014
:020000040000fa
:0402f400f402000010
:020000040000fa
:0402f800f40200000c
:020000040000fa
:0402fc00f402000008
:020000040000fa
:04030000f402000003
:020000040000fa
:04030400f4020000ff
:020000040000fa
:04030800f4020000fb
:020000040000fa
:04030c00f4020000f7
:020000040000fa
:04031000f4020000f3
:020000040000fa
:04031400f4020000ef
:020000040000fa
:04031800f4020000eb
:020000040000fa
:04031c00f4020000e7
:020000040000fa
:04032000f4020000e3
:020000040000fa
:04032400f4020000df
:020000040000fa
:04032800f4020000db
:020000040000fa
:04032c00f4020000d7
:020000040000fa
:04033000f4020000d3
:020000040000fa
:04033400f4020000cf
:020000040000fa
:04033800f4020000cb
:020000040000fa
:04033c00f4020000c7
:020000040000fa
:04034000f4020000c3
:020000040000fa
:04034400f4020000bf
:020000040000fa
:04034800f4020000bb
:020000040000fa
:10040000cfc720000e7f22000e01880000000000f0
:10041000000020000000e000020032000001200087
:100420002002880014000700710007000000e000af
:1004300003003a00203c22000100200002003700a7
:100440000000200001002000810f70000100320038
:1004500014000700000020000000e000020032004d
:1004600000000200000000002a2502000000000039
:100470000040da000000fe004440a900c07f2000d8
:100480000000e0000300320000002000a00188000e
:100490004440a800000006008a1f78008b1f7800e7
:1004a0000000060091018800800478000000eb0045
:1004b0001a003700e284440032a0b4009905ba0063
:1004c000e284440032a0b4009906ba00e2844400f9
:1004d00032a0b4000006eb00476fde00fd07b2005b
:1004e000636ce10003003a00ebff07000000eb0043
:1004f0000a003700606ce10004003a00005deb0088
:100500008b05e900fdff3e00040037006168e10053
:10051000010032000086eb000b00070019c7ba008b
:100520001905ba000e04e00003003a000a00e000da
:10053000e0ff3a0000000600fe07b2009e018800be
:100540008a047800f5ff3700395dba008b05e900b1
:100550000c003200295dba008b05e900080032006a
:100560000c00e00003003a00e284440032a0b40032
:10057000f5ff370019ddba008b05e900faff3a00f4
:100580008904e800e184440032a0b40000000600c1
:1005900000000000000000003600f800809fbe0050
:1005a000829fbe00849fbe00869fbe003400f8007c
:1005b00000002000a00188000000fa008760a90068
:1005c000b0408000000001000080fa003400f90013
:1005d0004f03be004f02be004f01be004f00be00e1
:1005e0003600f900004006000040da000000fe007e
:1005f000000005000000fa004fb99700e88157009d
:10060000df0107000080fa00000006000400070078
:100610005c0007000c010700340107008e00370062
:10062000ec874700889fbe008a9fbe008c9fbe005b
:100630008e1f7800000678000104780018079000eb
:100640002805900098067800cdb79f00b805900067
:100650003202be002203be000400be000601be003e
:100660004f18de006011b8008000eb00d0b79f008b
:10067000e1b79f00f2b79f0083bf9f00800478001e
:100680000900e000060032006000b8006011b80008
:1006900004025000858258000603590087835900e0
:1006a0000e00e000020035000d10a100cdb79f0044
:1006b0000900e00005003a004fb097000028a300b1
:1006c00002003a000038a300020032008a00e9006c
:1006d000010037008a007800f8815700a20020004e
:1006e00008007800860007000900e00003003a00d7
:1006f000cfb097000128a300080032000000e900f5
:1007000000814500b1c2b3000900e00001003200e1
:10071000d1c2b30001497800050037000138a300b9
:10072000030032000000e90001c2b30081757800c7
:10073000480190000201e90000015100808045005d
:100740004fb297008a0178000c007800c5010700bd
:100750009c0090000188a3000400320098009000e3
:10076000810f500001003d00010078004f07780024
:100770004f06be004f05be004f04be00cf00b100c3
:10078000000006000200fa00889fbe008a9fbe009b
:10079000000578000104780002007800180190003c
:1007a000a805900098007800b1bf9f00b8049000a1
:1007b0000200e000020035000110a100b1bf9f005f
:1007c000ea815700820020008b0078003002be00d2
:1007d0002003be0008007800490007003fb99700d9
:1007e000f0006100030032000000e90001c3b30023
:1007f000817478003fb99700e8006100030032007f
:100800000000e90001c2b300817478004801900043
:100810000201e90000015100808044003fba9700c6
:100820008b0178000a0078008e0107009a00900082
:100830000188a3000400320098009000810f50004e
:1008400001003d00010078004f05be004f04be00ce
:100850000080fa0000000600ea874700889fbe007b
:100860008a9fbe008e1f7800000478000300780085
:100870007287570084e2260055c72600049fbe00f9
:10088000c3962200030f78006c875700004feb00df
:1008900011059000a1049000910578000200e0008d
:1008a000020032000207780001003700728757000b
:1008b0000000e00002003a000e007800a6030700e6
:1008c0000a00e000030035008a0f500001003600e6
:1008d0000a0078000b027800890178000001780096
:1008e0008e007800080078005e0107004f0778004e
:1008f0004f05be004f04be00af00b100000006006f
:10090000f4874700889fbe008a9fbe008c9fbe0070
:100910008e1f78000605be000404be0081bf9f0044
:1009200082b79f00f3b79f00b0009000e1b79f002f
:100930001301780092b79f00900690004006900047
:100940000c06e9000d00e00001003d001d00200044
:10095000efb197000c8041000048eb001e00200022
:100960001f0037000c06e9000fb09700cf80de00b3
:100970006109b900a0b79f00b1b79f00c2b79f003f
:10098000d3b79f000203be000002be000800be00f5
:100990000a01be006905070000077800efb0970064
:1009a0000c80400003c3b300034847008d06e900f4
:1009b0000fb897000000e90080bf9f002fb297009a
:1009c000bfb297004fb39700dfb397000800be0097
:1009d0000a01be00520507000205be000004be0069
:1009e0000c00e0000d003200e00f5400e08f5c00ce
:1009f000e00f5d00e08f5d00daff3a000d00e000df
:100a0000d8ff3c008fb897000100e00003003400dd
:100a10001fb197000218a300d2ff3a000e00e000b9
:100a200002003a00ffb197001340a1000c007800cb
:100a30004f0778004f06be004f05be004f04be00b2
:100a40004f01b100000006000200fa00889fbe00be
:100a50008a9fbe00800478000104780002007800bc
:100a6000180190002805900098007800b1bf9f0001
:100a7000b80590000200e000020035000110a1005e
:100a8000b1bf9f00ea815700a20020008a007800d1
:100a90003002be002003be000800780098ff070067
:100aa000480190000201e9000001510080804500ea
:100ab0003fba97008a01780009007800e900070032
:100ac000990090000188a300040032009800900073
:100ad000810f500001003d00010078004f05be006d
:100ae0004f04be000080fa0000000600fa874700ad
:100af000889fbe008a9fbe008c9fbe008e1f78001c
:100b000080047800010478008205780018019000c4
:100b10002805900018077800b80090000200e00057
:100b2000020035000e10a100010037001200200065
:100b300070006700e0b79f00090032003b02be0072
:100b40002b03be00e00f5200e08f5a00e00f5b0065
:100b5000e08f5b00020032008a86e9000100370066
:100b60008a067800e8026700f5b79f0001003200ae
:100b70008d06e9003b02be002b03be00e4af9f00e0
:100b8000f5af9f0086b79f0097b79f00480690007b
:100b90000c06e9000c8040000048eb00efb2970023
:100ba0007fb297008903780081047800d8af9f0056
:100bb000020478008bbf9f008a0578000345780007
:100bc0002a0037000c06e9006fab97006f00630046
:100bd000e90f500002003c000003b00001003700a4
:100be0007005b0000a03fb001604b100f90f5300b2
:100bf0000c003e00000378000650a0001606b1006d
:100c0000f90f530007003e00b4b79f00a5b79f003f
:100c1000c7b79f002d030700cfb39700afb297006f
:100c20003fb2970080747e000804e9008d06e90059
:100c30006fa89700ffa897000fb197009fb197008a
:100c4000460020008301d1000281d3008180d300bf
:100c50000080d3000603e900faff3a00e0af9f00ee
:100c6000f1af9f0082b79f0093b79f00e10f56003e
:100c70000f0036006fa89700ffa897000fb19700ec
:100c80009fb19700e00f5000e08f5800e00f59002f
:100c9000e08f5900cbff3a000800e000c9ff3c009c
:100ca0000d00e000020034000e18a300c5ff3a005a
:100cb00089007800f4b79f00870478005fac970044
:100cc0008a4178000b0578008fbd97000500e00091
:100cd000100032003b02be002b03be00e4af9f00b9
:100ce000f5af9f0086b79f0097b79f00e00f5200b7
:100cf000e08f5a00e00f5b00e08f5b0005003200e0
:100d00000c06e90083707e000c06e90000c3b30006
:100d100080707e00ffb297000500e0000300320003
:100d20000c06e90000c2b30080707e00480190000c
:100d30000201e9000c0151008c8040000e02780095
:100d40008a017800090078004600070099009000a9
:100d50000188a3000400320098009000810f500029
:100d600001003d00010078004f0778004f06be00eb
:100d70004f05be004f04be00af01b10000000600e9
:100d8000f28747008e1f7800020278000301780086
:100d90000000e00002003200000778000100370088
:100da000728757008002eb000100e0000100320072
:100db0008102e90070805700060009000018eb006e
:100dc0007280570000a8eb002310200093bf9f0003
:100dd000aebf9f00b1bf9f00c5bf9f000100e000f4
:100de00004003d00b0042000d06388000080eb00c8
:100df00005003700004feb00eebf9f00debf9f00f5
:100e0000840078006c0207004f0778002f01b100c2
:100e100000000600889fbe008a1f780080047800ca
:100e20004900900002047800800f54000100360051
:100e300000047800080178006a8544001a007800f0
:100e4000db0107001a004400000d7800e88444002c
:100e5000990c14000048eb004f0578004f04be00c9
:100e600000000600f2874700889fbe008a9fbe00f0
:100e70008c9fbe008e1f78008004780001057800ea
:100e800002047800830578006107620002003a00de
:100e90008b0f540008003900080178008a007800a0
:100ea00009007800dbff07008b0f540002003900b7
:100eb000880578001e003700088655000c01780070
:100ec000f00f560001003600020120000102200050
:100ed0007e805700bd0107008c06780005003700b2
:100ee00002012000fe80570009007800c9ff0700ba
:100ef000f0865600ef8f5600f9ff3e004461de0099
:100f000000ff2f000091b90002014600fe8057004b
:100f100009007800bfff07000e00e00004003a005f
:100f2000080178008a00780009007800b9ff0700fe
:100f30000b0078004f0778004f06be004f05be003b
:100f40004f04be002f01b1000000060000000500a4
:100f50000000050000000500000178000040eb00e3
:100f60008080fb008180400003c6200063c27800bf
:100f70000404e00003003a0010c6200060c07800be
:100f80000000060092017800934f520004003a00de
:100f900010c6200060c078000309e8000100370097
:100fa0000040e800ea4f5000edff36000000060068
:100fb000f6874700889fbe008a9fbe008c9fbe00b8
:100fc0008e1f780080047800010478008305780083
:100fd000040678000000eb00c0b79f008080eb00a3
:100fe000d1b79f00e0b79f00f2b79f000008200034
:100ff00080bf9f0098007800010078000005eb009a
:10100000010037000a05e800304178000204e000e2
:101010000300320053c2b300834f5100f9ff3a007e
:101020000a00e000040032000a017800090078009c
:1010300078ff0700180c45001807780050c2b3006d
:101040009e4f100033013a000e07e8000e0c7800a6
:1010500010003700cfb097000100a0000b00370050
:10106000cfb097000110a00008003700cfb0970064
:101070000120a00005003700cfb097000130a0008c
:1010800002003700cfb097000140a000c1b79f0019
:10109000000ce8001800780090407800b2c2b3005d
:1010a00082cf5000f1ff320007003c0002c2b300c3
:1010b00082cf5000f0ff320032c2b30082cf500026
:1010c00007003a00efff3700d2c2b30082cf5000d2
:1010d000e0ff320002c3b30082cf5000e0ff3200d5
:1010e000a2c2b30082cf50000d003a00000ce8000d
:1010f0001c80e900000e780010007800e0b79f0027
:101100000000e0000f003d00cfb097000100a200fa
:10111000c1b79f000000ea00e0b79f000900370058
:10112000bd010700e0b79f0001003700000ce80098
:10113000180078009000fb000103b100e98f500017
:10114000faff36004fb097000008a30002003200fb
:101150000010a100c0b79f0018007800e1c2b300e2
:1011600090cf100016003a008000eb00d1b79f002e
:101170000000e800000c7800a1c2b30090cf10007e
:1011800006003a00000ce8001c80e900000e780020
:1011900010007800d0b79f00090037009e010700bb
:1011a000d0b79f0001003700000ce800180078005d
:1011b0009000fb000103b100e98f5000faff3600f8
:1011c0000800780064ff0700804678001800780067
:1011d0001000fb00b601070091062000810f5000af
:1011e0003800320012003c0041062000810f500000
:1011f000340032000a003c0011062000810f50002c
:101200002000320031062000810f50009a00320089
:1012100051022000810f5000ae003a00a7003700b5
:1012200071062000810f5000aa003c0082003700a8
:1012300001072000810f50005c00320007003c00d5
:10124000e1062000810f500074003200f1062000fa
:10125000810f50009f003a003900370051072000ed
:10126000810f50002700320081072000810f5000bd
:101270004200320031072000810f500095003a00f3
:10128000850037008d80fb000c01780000fe2f00e8
:101290000f004000940107000000e0009c003200b5
:1012a00018007800000ce8009041780002fe2f0042
:1012b0000f014100f88057000900780024ff070063
:1012c0000e0037008d80fb008c017800120020009a
:1012d00000fe2f000f004000a20107000000e00008
:1012e0008b003200180ce80002fe2f000f014100b5
:1012f000f880570009007800c9fc07000005450088
:10130000840037008d80fb008c0178000001eb0029
:1013100000fe2f000f004000920107000000e000d7
:101320007b003200180ce80002fe2f000f01410084
:10133000f880570009007800c3fd0700efff370071
:101340008d80fb008c0178000001eb0000fe2f0077
:101350000f004000830107000000e0006c00320035
:10136000180ce80002fe2f000f014100f880570022
:101370000900780003fd0700e0ff37008d80fb00c7
:101380008c0178000001eb0000fe2f000f004000f0
:10139000740107000000e0005d00320018007800d2
:1013a000000ce80090417800160037008c017800ae
:1013b0000001eb00010f200000fe2f000f00400095
:1013c000680107000000e00051003200180ce8003e
:1013d0000fb097009fb097002fb19700bfb1970053
:1013e000e00f5000e08f5800e00f5900e08f5900e7
:1013f00003003a008001eb00a2c520004000370046
:1014000083c7b30002fe2f000f014100f880570090
:1014100009007800b5fd0700b8ff37000b01450053
:101420008d80fb008c01780000fe2f000f00400033
:10143000a5010700360037008d80fb000c01780005
:1014400000fe2f000f004000270107000000e00011
:101450002f00320018007800000ce800904178005e
:1014600002fe2f000f014100f880570009007800ac
:10147000b7fe0700a1ff370000c8b30080cf5600b9
:1014800023003a00180ce8001c80e900000e7800e8
:10149000104078000d00370000c8b30080cf560020
:1014a0001b003a00180ce8001c80e900000e7800d0
:1014b0008001eb00100178001100370001c8b30073
:1014c00081cf560012003a00180ce800e0df9f00c0
:1014d0000800370050c2b300e0df9f000e0c780018
:1014e0000000eb00c0b79f00e0b79f008080eb00da
:1014f000d1b79f0013002000e2fd2f000f01410033
:10150000f880570009007800d3fc07007bff370004
:10151000180ce8000a0078004f0778004f06be005c
:101520004f05be004f04be006f01b1000000060071
:101530008200fa00889fbe008a1f780000057800ac
:1015400082047800c13f9f000004eb0010003700c8
:101550000902780088017800a2f72f000f014100ee
:1015600081f72f008f8040000a00780090fe07006e
:1015700008004000880f500004003d00b004200027
:10158000d06388000084eb0004003700000478007a
:101590004f3897001004e000edff3a000800780093
:1015a0004f0578004f04be000080fa0000000600de
:1015b0008001780002003700b15978000201e9008b
:1015c0000200e000fcff3a0000000600889fbe0019
:1015d0008a9fbe00800478000200e0005a003200ba
:1015e00001407800814c780082814400f1f99f002d
:1015f000e20f51005400360091449800a144980035
:10160000e1f99f00d1f99f00e60f51004e0036002e
:10161000b1449800c1f99f00e80f51004a0036001c
:101620000905ea00630565000a8444000a055100c3
:10163000c1ff2f00010565000080fb008000eb006a
:1016400012102000131020008d010700008cbe0036
:101650000a01440060b99f0071b99f00e80f55006e
:1016600039003600200498003104980040049800a6
:101670005104980020b99f0031b99f0040b99f00e4
:1016800051b99f00f80f55002f00360060049800f4
:1016900071049800000c9800110c9800200c980020
:1016a000310c9800400c9800510c980020b19f001c
:1016b00031b19f0040b19f0051b19f0060b19f00c8
:1016c00071b19f0000b99f0011b99f0064016400cf
:1016d0007801410002044400020555006011b80081
:1016e0000203be000002be000403be006022b80078
:1016f0000000720081807200020173008381730018
:101700000f00370008027800009abe00029abe005f
:10171000009abe000292be00000c9800110c9800c6
:10172000220c9800330c9800400c9800510c980043
:10173000620c9800730c98000a02b1000802b00015
:10174000ff0f5500efff3e00090078004f05be0077
:101750004f04be000000060080007800040037003f
:101760003104e00002003a000000510000000600d1
:10177000010178000108a300f9ff3a008101780017
:1017800031017800f4ef2f00020242000281ea00ea
:10179000020162000408280004016100f7ff320022
:1017a00083007800010178003104e000fdff3a0079
:1017b00000005100000006000200fa00881f7800b7
:1017c00000047800e2bf9f006481570008007800a1
:1017d00057ff0700980090000148a3000100320065
:1017e0000080eb004f0478000080fa000000060043
:1017f000800078001000200002022000828f50003c
:1018000004003200e9805000e48f500001003600ef
:101810000000eb0000000600889fbe008a1f7800d1
:10182000800478000904780088047800394578003d
:101830000a00fb00eeff07000000e000f9ff3a009d
:10184000b0c2b300804f550005003200d0c2b300d3
:101850008000eb00804f550005003a000200370081
:101860008000eb0001003700110020000804e800b0
:101870000000eb00030037006a02b90002005200ca
:101880000003b0003801fb0003fd2f0082814100fe
:10189000e98f5100f8ff36000100e00001003a0036
:1018a0000000ea004f0578004f04be00000006006b
:1018b000f1fb2f0080804000f98f500001003e00b6
:1018c0000050a00000000600f9ff3700f1f92f00da
:1018d00080804000f98f500001003e00f005b2000a
:1018e00000000600f9ff3700881f78000004780028
:1018f00000082000808f50001700350010082000dd
:10190000808f50000b00340030082000808f500082
:1019100011003a00920078006880500000097800b9
:101920003002be002003be00049cbe000694be0030
:1019300007003700920278006480520000097800a6
:101940001000be009a000700009cbe000294be007a
:1019500010002000010037000000eb004f04780069
:101960000000060084082000848f50001d00320013
:101970000d003c0014082000848f50002700320026
:1019800002003c0004082000040037002408200066
:10199000848f50002a00320044082000848f5000b9
:1019a00048003a003b003700040a2000848f5000b2
:1019b0002c00320004003c0004092000848f5000f9
:1019c00040003a002d003700020c2000828f5000aa
:1019d0001e003200020f2000828f500039003a00b2
:1019e000300037009380e9000200e000050032007b
:1019f000810978001102fb00cfa2de00612bb90043
:101a00002d00370081097800114278000482fb0024
:101a10008002eb006033b800270037001302780023
:101a2000e40052000200e0000a0032008109780060
:101a30001102be004fabde00860378001e003700a7
:101a400093027800e88052000e003700930278007d
:101a5000e4805200810978001102be006033b800b2
:101a6000150037009380e9008109780011027800a1
:101a7000cfa2de00612bb9000f00370013037800fe
:101a8000e8005300810978003102be002103be0046
:101a9000090037009380e9000200e00002003200f4
:101aa000f1ff37009380e900810978001102780086
:101ab0008002eb006033b8000498be000690be00c0
:101ac000100005000000050044082000848f50002d
:101ad000270032000a003c0014082000848f5000c8
:101ae0001c00320024082000848f500026003200a1
:101af00004082000848f50002c003a001c0037009e
:101b000004092000848f50001f00320004003c00b4
:101b100084082000848f500024003a00070037001a
:101b2000040a2000848f500011003200040c2000b1
:101b3000848f50001d003a00060037009380e900b2
:101b400081097800910078000108780082487800c7
:101b5000150037009380e900810978009100780032
:101b600001087800cf91de008288be000e003700a9
:101b70009380e900810978009100780001087800dd
:101b800082087800080037009380e9008109780016
:101b900091007800010878006112b900612bb9004a
:101ba0008498be008690be0010000500000005006d
:101bb000810378001d0007000001be006000b8002e
:101bc0000478a30013003a006220e10015003e00f3
:101bd0000d0039008301d1000281d3008180d30040
:101be0008301d1000281d3008180d3008301d10021
:101bf0000281d3008180d3000538b000c42add0003
:101c0000f300b2008381720007f0a70003f0a00088
:101c10000000060083ff2700020020006110b900c9
:101c2000f9ff370003ff2700f7ff3700c70ade0080
:101c3000f107b200f50fb20008003200e1cf420018
:101c4000020032000170a00024000500810f700026
:101c5000010032000408050044000500810f7000f7
:101c600002003a00140005008502e900000040006f
:101c700081c04800fcff3b000170a000240005006b
:101c8000020ab900001bb9000200b800810042003e
:101c90008100430000000600889fbe008a9fbe00ae
:101ca00030044200b0844a0030054b0090854b0060
:101cb0006000b1000898be000a90be000440e10038
:101cc00005c8e10006d0e10007d8e10002003100bc
:101cd000680040001008e8004f05be004f04be0039
:101ce00000000600889fbe008a9fbe003004be0030
:101cf0002005be000418540005985c0006185d001d
:101d000007985d00110020000440e10005c8e100d3
:101d100006d0e10007d8e100010039008000eb00a7
:101d2000108810004f05be004f04be0000000600e2
:101d3000f4874700889fbe008a9fbe008c9fbe002c
:101d40008e1f7800d0b79f00e1b79f00f2b79f00c9
:101d500083bf9f000605be000404be00cfae9700ff
:101d60000000eb00c0b79f00b0b79f00a0b79f0076
:101d700090b79f0080b79f00000678004fb0970093
:101d8000000140000000e00006003d003c000700ac
:101d90000f074700450007000f004000beff070087
:101da00005003700360007000f0747003f00070017
:101db0000f004000cbff07004fb797000e00e00078
:101dc0000c0035005fb29700efb297007fb3970029
:101dd0008fbb970010002000010020006011b800a8
:101de0000002720081827200020373008383730019
:101df0001c0007000c06e80001042000810f5600bb
:101e0000deff3a000e00e00005003d000802be00c3
:101e10000a03be0000fe2f000f0040009eff0700d7
:101e20000d00e00005003a000fb297009fb2970046
:101e30002fb39700bfb397000a0007005fb0970069
:101e4000efb097007fb197008fb997004f077800e8
:101e50004f06be004f05be004f04be004f01b1004b
:101e600000000600010007000000060094b79f0074
:101e7000a5b79f00b6b79f00c7b79f000000060038
:101e80009fb097004f08de0002017000a2b79f00cc
:101e90000fb097004f01de0081804000810071008b
:101ea00091b79f000efe2f0000000600de007800b4
:101eb0004f09de00000040000000710080b79f0065
:101ec0006fa897004f01de0081804000010f710074
:101ed0000e0007004f3ade000000400004007000d2
:101ee000e0af9f00090007000402420085824a001b
:101ef00006034b0087834b00dcff07000802be008f
:101f00000a03be0000fe2f00000006001fb297006b
:101f1000afb297003fb39700cfb397000000060021
:101f2000881f780018002000881f780080ff0700b5
:101f30008f87e9004f04780000000600801feb0047
:101f40007bff07008f87e90000000600889fbe0026
:101f50008a9fbe00e00f5000e08f5800e00f59004c
:101f6000e08f59000c003d006044b8006055b80097
:101f70000000540081805c0002015d0083815d00ef
:101f8000180020001500070008003d001800070099
:101f90000004eb00050037000004eb000f00070011
:101fa00002003d001200070018002000dcff0700bf
:101fb0000800e000060032006022b8006033b8007c
:101fc0000000520081805a0002015b0083815b00a7
:101fd0004f05be004f04be0000000600e00f520097
:101fe000e08f5a00e00f5b00e08f5b00000006000e
:101ff0006044b8006055b8000402540085825c005b
:1020000006035d0087835d0000000600889fbe0018
:102010008a9fbe008c1f7800e00f5000e08f5800b0
:10202000e00f5900e08f59000d003d006044b800fa
:102030006055b8000000540081805c0002015d0022
:1020400083815d001c0020000820e10009a8e10058
:102050000ab0e1000bb8e1000d003d0008003700b8
:102060000006eb00e00f5200e08f5a00e00f5b002b
:10207000e08f5b0006003d006044b8006055b8008a
:102080000402540085825c0006035d0087835d00c6
:10209000aaff07000c00e000060032006022b80032
:1020a0006033b8000000520081805a0002015b00da
:1020b00083815b004f0678004f05be004f04be00d1
:0420c0000000060016
:020000040000fa
:1020c400000000000000000000000000005f0000ad
:1020d40000000000040300000004000003140000da
:1020e4007f1400007f140000242a00007f2a0000cf
:1020f400126300001308000064630000304e000007
:10210400512e0000500000000403000000000000f5
:10211400001c0000224100000000000041220000d9
:102124001c0000002a1c00007f1c00002a0800007c
:10213400083e0000080800000040000030000000d5
:102144000008000008080000080800000060000003
:10215400600000000060000010080000040300009c
:102164003e510000494500003e000000427f00004f
:102174004000000042610000514900004622000076
:10218400414900004936000018140000127f000085
:102194001027000045450000453900003c4a000076
:1021a40049490000300100007109000005030000e6
:1021b400364900004949000036060000494900003c
:1021c400291e000000360000360000000000000058
:1021d40056360000000000000814000022410000f0
:1021e4000014000014140000141400000041000046
:1021f400221400000802000001510000090600003a
:102204003e4100005d5500005e7c0000121100009c
:10221400127c00007f49000049490000363e00005e
:102224004141000041220000417f00004141000083
:102234003e7f000049490000414100007f09000041
:1022440009090000093e00004141000051720000ec
:102254007f080000080800007f000000417f0000a4
:102264004100000021410000413f0000017f0000c7
:1022740008140000224100007f400000404000009c
:10228400407f000002040000027f00007f04000081
:10229400081000007f3e000041410000413e000064
:1022a4007f09000009090000063e000041510000ba
:1022b400215e00007f090000192900004626000065
:1022c4004949000049320000010100007f0100007b
:1022d400013f000040400000403f00001f2000007c
:1022e400402000001f7f000020180000207f000015
:1022f4006314000008140000630300000478000065
:10230400040300006151000049450000430000003f
:102314007f41000041000000030400000810000099
:1023240060000000414100007f0000000402000042
:102334000102000004400000404000004040000052
:102344000000000003040000003000004a4a0000be
:10235400327c00007f48000048300000003000005c
:1023640048480000480000000030000048480000d1
:102374007f3800005454000054580000087e0000c8
:10238400090100000206000049490000453e000022
:102394007f1000000808000070000000487a000068
:1023a4004000000020400000443d0000007f000089
:1023b4001028000044000000000100007f0000001d
:1023c4000078000004180000047800007c08000075
:1023d400040400007838000044440000443800003d
:1023e4007e120000120c0000000000000c1200001d
:1023f400127e00007c08000004040000084800006d
:102404005454000054240000043f000044400000e1
:10241400203c000040400000207c00001c20000004
:10242400402000001c3c000040300000403c000004
:1024340044280000102800004426000048480000fa
:10244400483e000044640000544c0000440800006e
:102454003641000041000000000000007700000049
:1024640000000000414100003608000002010000a5
:102474000204000002000000000000000000000050
:102484000000000000000000000000000000000048
:102494000000000000000000000000000000000038
:1024a40000000000bf010000bf01000000000000a8
:1024b4000000000000000000000000000f00000009
:1024c4000f000000000000000f0000000f000000db
:1024d400000000006c000000ff010000ff0100008c
:1024e4006c000000ff010000ff0100006c00000010
:1024f4004c00000092000000ff0100009200000068
:10250400ff0100009200000064000000840000004d
:102514004a000000240000001000000048000000f1
:10252400a400000042000000c00000002e010000d2
:102534001101000011010000ae0000004000000085
:10254400a000000000000000000000000f000000d8
:102554000f00000000000000000000000000000068
:1025640000000000000000007c000000fe000000ed
:1025740083010000010100000000000000000000d1
:102584000101000083010000fe0000007c00000047
:102594000000000000000000920000005400000051
:1025a40038000000fe000000380000005400000065
:1025b4009200000010000000100000001000000055
:1025c400fe000000100000001000000010000000d9
:1025d400000000000001000080010000f001000084
:1025e400f0000000000000000000000030000000c7
:1025f4003000000030000000300000003000000017
:102604003000000030000000000000000000000066
:1026140080010000800100000000000000000000b4
:102624000000000080010000c00000006000000005
:1026340030000000180000000c000000060000003c
:102644007c000000fe000000c701000083010000c0
:10265400c7010000fe0000007c0000000000000034
:102664000c0000008e010000ff010000ff010000cb
:10267400800100000000000084010000c601000089
:10268400e7010000f3010000bb0100009f0100000e
:102694008e010000c6000000c70100008301000095
:1026a4009b0100009b010000ff010000e600000008
:1026b40070000000780000007c0000006e00000044
:1026c40067000000f3010000f1010000df000000da
:1026d400df0100009b0100009b0100009b01000042
:1026e400fb010000f3000000f8000000fc01000002
:1026f400be010000b6010000b7010000f3010000b4
:10270400e3000000c3010000e301000073000000c7
:102714003b0000001f0000000f0000000700000045
:10272400ee000000ff0100009b0100009b0100007f
:102734009b010000ff010000ee0000000e010000fc
:102744009f0100009b010000db000000fb00000073
:102754007f0000003e0000000000000000000000b8
:10276400ee000000ee000000ee000000000000009b
:1027740000000000000000000001000080000000d4
:10278400d800000058000000000000000000000015
:1027940010000000380000007c000000ee00000083
:1027a400c70100008301000001010000cc0000000b
:1027b400cc000000cc000000cc000000cc000000e5
:1027c400cc000000cc0000000101000083010000e7
:1027d400c7010000ee0000007c000000380000008b
:1027e400100000000600000007000000a301000024
:1027f400b30100003b0000001f0000000e000000b9
:10280400fe00000083010000390100002d010000da
:1028140039010000c70000003e000000fc01000078
:10282400fe01000067000000630000006700000074
:10283400fe010000fc010000ff010000ff01000098
:102844009b0100009b0100009b010000ff010000b0
:10285400f6000000fe000000ff010000c7010000b8
:102864008301000083010000c7010000c6000000ce
:10287400ff010000ff01000083010000830100004c
:10288400c7010000fe0000007c000000ff01000002
:10289400ff0100009b0100009b0100009b01000060
:1028a4008301000083010000ff010000ff0100001c
:1028b4001b0000001b0000001b00000003000000c0
:1028c40003000000fe000000ff010000870100007b
:1028d400b3010000b3010000f7010000f60000009e
:1028e400ff010000ff0100001800000018000000b4
:1028f40018000000ff010000ff01000000000000bc
:1029040000000000ff010000ff010000ff010000c3
:102914000000000000000000e0000000e0010000f2
:10292400800100008001000080010000ff01000020
:10293400ff000000ff010000ff010000380000005c
:102944007c000000ee000000c701000083010000cd
:10295400ff010000ff010000800100008001000071
:10296400800100008001000080010000ff010000e0
:10297400fe0100001c000000380000001c000000e4
:10298400fe010000ff010000ff010000ff01000044
:102994001c0000003800000070000000ff0100006f
:1029a400ff010000fe000000ff010000c70100005d
:1029b40083010000c7010000ff010000fe000000c9
:1029c400ff010000ff01000033000000330000009d
:1029d400330000003f0000001e0000007e000000e5
:1029e400ff000000c3000000c3000000c30100009a
:1029f400ff0100007e010000ff010000ff01000054
:102a040033000000f3000000f3010000bf010000e8
:102a14001e010000ce000000df0100009b01000049
:102a2400bb010000b3010000f7010000e600000054
:102a34000300000003000000ff010000ff0100008c
:102a4400ff0100000300000003000000ff0000007d
:102a5400ff010000800100008001000080010000ef
:102a6400ff010000ff0000003f0000007f000000a5
:102a7400e0000000c0010000e00000007f00000052
:102a84003f000000ff000000ff010000c001000043
:102a9400e0000000c0010000ff010000ff00000092
:102aa400c7010000ee0100007c00000038000000b7
:102ab4007c000000ee010000c70100000f000000d0
:102ac4001f000000f8010000f0010000f801000000
:102ad4001f0000000f000000c3010000e30100001c
:102ae400f3010000bb0100009f0100008f01000002
:102af40087010000ff010000ff01000083010000c6
:102b040083010000830100000000000000000000b9
:102b140003000000060000000c0000001800000084
:102b24003000000060000000c00000000000000051
:102b34000000000083010000830100008301000005
:102b4400ff010000ff010000180000000c0000005d
:102b54000600000003000000060000000c00000056
:102b640018000000800100008001000080010000c6
:102b7400800100008001000080010000800100004d
:102b8400c0ff0000ff030000f0ff0000ff0f000083
:102b9400f8ff0000ff1f00003c000000003c0000a4
:102ba4001e000000007800000e000000007000000d
:102bb4000700000000e000000700000000e0000043
:102bc4000700000000e000000700000000e0000033
:102bd4000e000000007000001e00000000780000dd
:102be4003c000000003c0000f8ff0000ff1f000054
:102bf400f0ff0000ff0f0000c0ff0000ff03000013
:102c04000040000000000000006000000000000020
:102c140000700000000000000078000000000000c8
:102c2400003c000000000000001e00000000000046
:102c3400000f0000000000008007000000000000fa
:102c4400c003000000000000e001000000000000dc
:102c5400f000000000000000780000000000000008
:102c6400fcff0000ffff0000feff0000ffff00006c
:102c7400ffff0000ffff0000000000000000000054
:102c84006000000080ff000070000000c0ff000032
:102c940078000000e0ff00003c000000f0e00000cd
:102ca4001e00000078e000000f0000003ce000007f
:102cb400070000001ee00000070000000fe0000015
:102cc4000780000007e0000007c0000003e00000e8
:102cd40007e0000001e000000ff0000000e0000049
:102ce4001e78000000e00000fc3f000000e000004f
:102cf400f81f000000e00000f00f000000e00000fa
:102d0400e000000070000000f0000000000f000070
:102d1400f8000000001f00003c000000003c000020
:102d24001e000000007800000fc0000001f0000049
:102d340007c0000001e0000007c0000001e000003f
:102d440007c0000001e0000007c0000001e000002f
:102d54000fe0000003f000001ef000000778000000
:102d64003c7800000f3c0000f8bf0000ff1f00008b
:102d7400f01f0000ff0f0000c00f0000fe0700005e
:102d840000f800001f00000000fc00001f0000000d
:102d940000fe00001f000000000f00001c000000e7
:102da400800700001c000000c00300001c0000009d
:102db400e00100001c000000f00000001c00000006
:102dc400780000001c0000003c0000001c00000013
:102dd4001e000000feff00000f000000feff0000c8
:102de40078000000feff00003c0000001c00000012
:102df4001e0000001c0000000f0000001c0000006a
:102e0400ff7f000080070000ff7f0000800f0000ac
:102e1400ff7f0000801f000007700000003c0000de
:102e240007700000007800000770000000f0000048
:102e34000770000000e000000770000000e00000e0
:102e44000770000000e000000770000000e00000d0
:102e540007f0000000f0000007e000000178000027
:102e640007c00000033c000007f80000ff1f00003b
:102e740007f00000ff0f000007e00000ff0700005c
:102e840000ff0000ff0f0000e0ff0000ff1f000034
:102e9400f8ff0000ff3f0000fec30000077c0000b5
:102ea400fce1000003f80000fce0000001f0000079
:102eb4003ee0000000e000001ee0000000e0000032
:102ec4000fe0000000e000000fe0000000e0000060
:102ed40007e0000001f0000007e0000003f8000034
:102ee40000c00000077c000000f80000ff3f000065
:102ef40000f00000ff1f000000e00000ff0f0000d2
:102f040007000000000000000700000000000000af
:102f1400070000000000000007000000000000009f
:102f24000700000000c000000700000000f00000df
:102f34000700000000fe000007000000c07f000042
:102f440007000000f00f000007000000fc01000073
:102f5400070000003f00000007c000000700000059
:102f640007f0000001000000d73f0000000000004f
:102f7400ff070000000000007f00000000000000c8
:102f8400f0030000fe0f0000f00f0000ff1f000020
:102f9400f81f0000ff3f00003c7000000f780000a5
:102fa4001ee0000007f000000ec0000003e0000077
:102fb40007c0000001c0000007c0000001c00000fd
:102fc40007c0000001c0000007c0000001c00000ed
:102fd4000ec0000003e000000ee0000007f0000057
:102fe4001c7000000f780000f81f0000ff3f000075
:102ff400f00f0000ff1f0000f0030000fe0f0000b0
:10300400801f000000000000f03f000000000000ee
:10301400f87f0000000000003cf000000080000089
:103024001ee0000001c000000fc0000003e000002b
:1030340007c0000001f0000007c00000017c000090
:1030440007c00000013e000007c00000c11f0000cf
:103054000fc00000e30f00001ee00000f7030000b3
:103064003cf00000fb010000f8ff0000ff0000003e
:10307400f0ff00003f000000e0ff00000700000038
:1030840005070000100700000920000020200000b0
:10309400305e00005a39000054450000434c0000e3
:1030a4004120000054450000535400000025000056
:0830b400687500000000000037
:020000040000fa
:1030bc000200fa000000eb00000f78000900370056
:1030cc001e007800a18120004300dd00008240003a
:1030dc006000b8006011b800009abe000292be00f9
:1030ec001e0fe800f00720009e007800808f500033
:1030fc00f3ff36000028ef000228ef000468ef0011
:10310c00208429001040780018e8b700508429006a
:10311c001040780019e8b700b40407000080fa00ea
:10312c00000006000000fa0001082000a081200029
:10313c00190507000080fa00000006000200fa00e2
:10314c000000eb00000f7800090037001e0078002b
:10315c00a18120004300dd00008240006000b80027
:10316c006011b800009abe000292be001e0fe8006b
:10317c00f00720009e007800808f5000f3ff36008f
:10318c000080fa00000006000400fa00889fbe00d0
:10319c008a1f7800004f78000e00e8000148780084
:1031ac000e80e800024878001e4078000004e00021
:1031bc004b0035000e00e80090407800f0c3b300df
:1031cc0080cf500048003e000e80e8001040780090
:1031dc000004e0001f0032001e84fb001e80fb0078
:1031ec004300dd00a1812000008040003002be00c1
:1031fc002003be000e00e800104078008084fb0025
:10320c0010002000010020006011b80009057800b2
:10321c000a05e900050033000000d0008180d200cf
:10322c000281d2008381d200f9ff370000007200c6
:10323c00818072000201730083817300a5812000dc
:10324c004342dd0004824200009abe000292be009e
:10325c00260037001e84fb001e80fb004300dd00af
:10326c00a1812000008040003002be002003be007f
:10327c000e00e800104078008084fb001000200055
:10328c00010020006011b800090578000a05e9006a
:10329c00050033000000d0008180d2000281d200f2
:1032ac008381d200f9ff37000080ea008180ea00b8
:1032bc000281ea008381ea000000620081806200e2
:1032cc000201630083816300a58120004342dd007d
:1032dc0004824200009abe000292be000300370036
:1032ec000000000001003700000000004f057800ce
:1032fc004f04be000080fa00000006001400fa0023
:10330c00889fbe0070024700004a78007100470099
:10331c0001487800720047000248780073004700ab
:10332c000348780072004700904078007000470016
:10333c001040780080cf5000080036007200470023
:10334c00104078008080fb0070004700104078002f
:10335c000080fb0000805000070037007000470021
:10336c00104078008080fb0072004700104078000d
:10337c000080fb0000805000e600470080087800c9
:10338c0073004700904078007100470010407800af
:10339c0080cf5000080036007300470010407800c2
:1033ac008080fb0071004700104078000080fb001b
:1033bc000080500007003700710047001040780073
:1033cc008080fb0073004700104078000080fb00f9
:1033dc0000805000e800470080087800700047002b
:1033ec0090407800720047001040780080cf500069
:1033fc000200310010002000010037000080eb00bb
:10340c00ea0047008008780071004700904078007f
:10341c00730047001040780080cf5000020031004c
:10342c0010002000010037000080eb00ec0047008a
:10343c00800878006600470090007800680047001c
:10344c0010007800008f500070004700104078008a
:10345c008080fb000e80e8000108780071004700b6
:10346c00104078008080fb00640047000108780061
:10347c0001003700000000000e80e800100078000a
:10348c000000e0002d0035000e80e8009000780070
:10349c00f0072000808f500028003c00640047009b
:1034ac00100078000000e0002400350064004700a4
:1034bc0090007800f0032000808f50001f003c002b
:1034cc000e80e800100078004300dd00a181200090
:1034dc00008040003002be002003be00100020001f
:1034ec00010020006011b800640447001804780043
:1034fc00880478008904e900050033000000d0003e
:10350c008180d2000281d2008381d200f9ff370082
:10351c0000007200818072000201730083817300cd
:10352c000e82e80014027800a58120004322dd0001
:10353c0004824200009abe000292be007200470054
:10354c00104078000080fb008e80e800910078002d
:10355c00810f500007003a007300470010407800bc
:10356c000080fb00e400470091007800810f5000c0
:10357c00260032001e007800800040006e004700dc
:10358c000108780068004700100078000000ea008d
:10359c00ee00470091007800810f50000a003d00ba
:1035ac0068004700100078001e0f10000e80e80025
:1035bc00900078006a00470010007800808040007e
:1035cc000e80e800010878006e004700900078003b
:1035dc006600470010007800808f5000a5ff3d006a
:1035ec0066004700100078001e0f40006400470082
:1035fc00900078006c00470010007800808040003c
:10360c0064004700010878009bff370000000000b1
:10361c004f04be000080fa00000006000200fa0011
:10362c00004f78001e407800e24f50000200360038
:10363c000040eb00004f78001e41780041802000d4
:10364c00824878001e80fb00218429000080400005
:10365c001040780018e8b7001e80fb005184290048
:10366c00008040001040780019e8b7000080fa0094
:10367c00000006000a00fa00889fbe008a1f78002e
:10368c00e80047008048780004c8bf000080fb00b9
:10369c008184290000804000904078006800470039
:1036ac001040780080cf5000d0003c0004c8bf0010
:1036bc000080fb00b184290000804000904078001d
:1036cc00680047001040780080cf5000c9003500da
:1036dc0068004700104078008000fb0004c8bf0061
:1036ec000080fb008284290000004100104078001b
:1036fc000000fb00008050008000780018c8bf005c
:10370c000080fb000088b90080007800660047004c
:10371c00010878000040eb00004f7800a60037004d
:10372c001e80fb000140800081004000f00720005b
:10373c00808f5000a5003c0004c8bf000080fb0037
:10374c00e10f500003003200e20f50000d00320078
:10375c00170037001e80fb00e60047009100780040
:10376c00010040008000400020242900008040001f
:10377c0010007800cf80de000e81e8000089be00ca
:10378c00170037001e80fb00e60047009100780010
:10379c0001004000c200dd00205c29008080400058
:1037ac000e80e80031187800211078000c003700ea
:1037bc001e80fb00e60047009100780001004000ed
:1037cc002106290000804000104078000000fb001a
:1037dc00cf80de000e81e8000089be0000000000f2
:1037ec008040eb000e00e800014878006a003700ca
:1037fc000e00e800104078000080fb0011408000b3
:10380c0081004000f0032000808f500068003c00d5
:10381c000e00e800104078000081fb000e80e800ec
:10382c001000be00820178008301e9000300330020
:10383c008180d1000080d300fbff370000007800ae
:10384c0061006000004078000004e00025003200b8
:10385c001e80fb0001408000010440001e80fb0024
:10386c0001408000010040004300dd00a1812000e8
:10387c00008040003002be002003be000e00e800b5
:10388c00104078000080fb00114080008104400053
:10389c0010002000010020006011b800090578001c
:1038ac000a05e900050033000000d0008180d20039
:1038bc000281d2008381d200f9ff37000000720030
:1038cc00818072000201730083817300a581200046
:1038dc004342dd0004824200009abe000292be0008
:1038ec00280037001e80fb000140800001044000ce
:1038fc001e80fb0001408000010040004300dd0001
:10390c00a1812000008040003002be002003be00d8
:10391c000e00e800104078000080fb001140800091
:10392c008104400010002000010020006011b8004c
:10393c00090578000a05e900050033000000d000f5
:10394c008180d2000281d2008381d200f9ff37003e
:10395c000080ea008180ea000281ea008381ea00ab
:10396c0000006200818062000201630083816300b9
:10397c00a58120004342dd0004824200009abe0073
:10398c000292be000e00e800104078008040e80073
:10399c000e00e8000148780019c8bf008e00e8004e
:1039ac009140780080cf500091ff39000100370022
:1039bc00000000001e4fe80018c8bf009e407800b1
:1039cc0080cf500056ff3900010037000000000086
:1039dc0018c8bf000080fb000000e8000140800018
:1039ec000100400000408800030037000000000088
:1039fc0001003700000000004f0578004f04be00a6
:103a0c000080fa00000006000200fa00000f7800a7
:103a1c00040037001e0078001040780015ff0700e6
:103a2c001e0fe8001e007800104078000004e00033
:103a3c00f8ff3a000080fa00000006000600fa00c9
:103a4c00004f78000e00e800014878000e80e80076
:103a5c000248780064004700030878000e80e800f4
:103a6c0010407800edfe07001e80fb00004088002f
:103a7c000e00e800104078000080fb001040880029
:103a8c006400470010007800dfff07000080fa0098
:103a9c00000006000200fa00004f78001e80fb00b8
:103aac00e10f50000c003200e10f500003003c000d
:103abc000000e000060032000d003700e20f50005d
:103acc0007003200e30f50000700320008003700f7
:103adc00c0e2a90006003700c082a900040037002c
:103aec00c062a90002003700c042a900000000001b
:103afc000080fa00000006000200fa00004f780077
:103b0c001e80fb00e10f50000c003200e10f500052
:103b1c0003003c000000e000060032000d003700fe
:103b2c00e20f500007003200e30f50000700320094
:103b3c0008003700c0e2a80006003700c082a800c9
:103b4c0004003700c062a80002003700c042a80081
:103b5c00000000000080fa00000006000200fa00dd
:103b6c00004f78001e80fb00e10f5000080032006f
:103b7c00e20f50000a0032000000e0000c003a0096
:103b8c00101680000000d100614060000900370071
:103b9c00101680000040780061406000050037007e
:103bac00901680004300de00614060000100370089
:103bbc0010c0b3000080fa00000006000200fa00fa
:103bcc000040eb00004f7800100037001e80fb0017
:103bdc00a2c120008040eb000000410001487800a9
:103bec001e80fb0062c220008040eb000000410000
:103bfc00014878001e80fb0022c320008040eb00af
:103c0c0000004100014878001e4fe8001e4078007b
:103c1c00eb4f5000edff3600c022a8006860a800f2
:103c2c00c002a8006840a800d062a8006b80a80061
:103c3c00c4e2a900c0e2a800c482a900c082a80006
:103c4c00c462a900c062a800c442a900c042a80076
:103c5c000080fa00000006000200fa00004f780015
:103c6c001e41780061802000824878000080fa00b4
:103c7c00000006000800fa00800307000e81e8002f
:103c8c000089be0040408000514080000e81e80059
:103c9c001201be000001510081815900400020003a
:103cac0001002000800f5100818f59008d003600db
:103cbc000e80e8001001be0042408800534088008e
:103ccc000040eb00004f7800820037001e40780067
:103cdc0070ff0700000f2000010020007a0307008e
:103cec008040eb000e00e8000148780072003700bd
:103cfc001e4078006300b900000078008040780016
:103d0c000e00e8001040780080c0400066004700bc
:103d1c00014878000e00e800104078008fff070083
:103d2c000080fb000000e900cf00de0067004700c8
:103d3c000148780066004700104078000080fb00c6
:103d4c0061c220000080400090407800670047006e
:103d5c001040780080cf50000e0032006600470003
:103d6c00104078000080fb0022c3200041c0b3004b
:103d7c0000004100014878006600470010407800c0
:103d8c000080fb0061c2200000804000e70047007b
:103d9c001148780066004700104078000080fb0056
:103dac0021c3200000804000104078000004e00097
:103dbc003c00320066004700104078000080fb0099
:103dcc0021c3200080804000914078008140e900b0
:103ddc0022c3200000004100014878006600470023
:103dec00104078000080fb0021c3200000804000c0
:103dfc00104078000004e0002a003a0067004700f9
:103e0c00104078000004e000130032006600470008
:103e1c00104078000080fb00a1c120000080400011
:103e2c00104078000004e0000b003a0066004700e8
:103e3c00104078000080fb00a2c1200011c0b3002c
:103e4c0000004100014878006600470010407800ef
:103e5c008602070013003700670047001040780007
:103e6c000004e0000f003a006600470010407800a4
:103e7c000080fb00a1c120000080400010407800b1
:103e8c000004e00007003200660047001040780094
:103e9c000080fb00a2c120008040eb00000041002c
:103eac00014878000e00e800104078008040e800df
:103ebc000e00e800014878000e00e8001040780081
:103ecc00e24f50008aff36001e4078000aff0700c0
:103edc001e4fe8001e407800e34f50007bff360079
:103eec0001003700000000000080fa00000006000e
:103efc000200fa00004f78001e80fb00e10f50001a
:103f0c000c003200e10f500003003c000000e00008
:103f1c00060032000d003700e20f5000070032009f
:103f2c00e30f50000700320008003700c102a9005f
:103f3c0006003700c122a90004003700c142a900c5
:103f4c0002003700c142a900000000000080fa0006
:103f5c00000006000200fa00004f78001e80fb00f3
:103f6c00e10f50000c003200e10f500003003c0048
:103f7c000000e000060032000d003700e20f500098
:103f8c0007003200e30f5000070032000800370032
:103f9c00c102a80006003700c122a80004003700a7
:103fac00c142a80002003700c142a8000000000076
:103fbc000080fa00000006000200fa00004f7800b2
:103fcc001e80fb00e10f500008003200e20f500091
:103fdc000a0032000000e0000c003a00901680004d
:103fec004200de006140600009003700901680003e
:103ffc000000d10061406000050037009016800081
:10400c0000407800614060000100370010c0b30030
:10401c000080fa00000006000200fa000040eb00ed
:10402c00004f7800100037001e80fb00e2c3200018
:10403c008040eb0000004100014878001e80fb002e
:10404c0072c420008040eb00000041000148780061
:10405c001e80fb0002c520008040eb0000004100e8
:10406c00014878001e4fe8001e407800e84f5000d1
:10407c00edff3600d042a8006940a800d022a8006d
:10408c006920a800d002a8006900a800c502a900f8
:10409c00c102a800c522a900c122a800c542a900de
:1040ac00c142a800c542a900c142a8000080fa0084
:1040bc00000006000200fa00004f78001e41780054
:1040cc00c1802000824878000080fa0000000600c1
:1040dc000800fa00690207000e81e8000089be00a2
:1040ec0070408000814080000e81e8001201be000b
:1040fc000001510081815900400020000100200086
:10410c00800f5100818f59008d0036000e80e80021
:10411c001001be0072408800834088000040eb0014
:10412c00004f7800820037001e40780070ff0700b7
:10413c00000f200001002000630207008040eb000c
:10414c000e00e80001487800720037001e4078002d
:10415c006300b90000007800804078000e00e80091
:10416c001040780080c0400066004700014878008d
:10417c000e00e800104078008fff07000080fb0065
:10418c000000e900cf00de0067004700014878001e
:10419c0066004700104078000080fb0071c42000ce
:1041ac000080400090407800670047001040780085
:1041bc0080cf50000e00320066004700104078009f
:1041cc000080fb0002c5200041c0b300000041008c
:1041dc000148780066004700104078000080fb0022
:1041ec0071c4200000804000e700470011487800af
:1041fc0066004700104078000080fb0001c52000dd
:10420c0000804000104078000004e0003c003200c8
:10421c0066004700104078000080fb0001c52000bc
:10422c0080804000914078008140e90002c5200068
:10423c0000004100014878006600470010407800fb
:10424c000080fb0001c52000008040001040780079
:10425c000004e0002a003a00670047001040780094
:10426c000004e000130032006600470010407800a4
:10427c000080fb00e1c3200000804000104078006b
:10428c000004e0000b003a00660047001040780084
:10429c000080fb00e2c3200011c0b300000041000d
:1042ac000148780066004700104078008201070042
:1042bc001300370067004700104078000004e0004e
:1042cc000f003a0066004700104078000080fb00a9
:1042dc00e1c3200000804000104078000004e000a2
:1042ec000700320066004700104078000080fb0099
:1042fc00e2c320008040eb00000041000148780040
:10430c000e00e800104078008040e8000e00e80045
:10431c00014878000e00e80010407800e24f500091
:10432c008aff36001e4078000aff07001e4fe80087
:10433c001e407800e24f50007bff36000100370032
:10434c00000000000080fa00000006000200fa00e5
:10435c00004f7800d4a2a9001e4078006401070029
:10436c00d4a2a8000080fa00000006000200fa00a7
:10437c00004f78001e4078005d0107000080fa00b5
:10438c00000006000200fa00004f78000e00e80062
:10439c000148780050c1b300ecff07001e407800c4
:1043ac00f2ff07000e00e80010407800efff070056
:1043bc000080fa00000006000200fa00004f7800ae
:1043cc000e00e8000148780050c7b300dfff07007b
:1043dc001e407800e5ff07000e00e8001040780052
:1043ec00e2ff07000080fa00000006000000fa005f
:1043fc00c9e2a900d0a2a900c9a2a900c9c2a900fa
:10440c00d0e2a900cda2a90031010700cde2a9009c
:10441c00d4e2a90000c8200001002000aa01070076
:10442c00d4e2a80000c8200001002000a60107006b
:10443c00e0cab300c5ff070030cbb300c3ff0700d1
:10444c0010c9b300c9ff0700a0ccb300bfff070021
:10445c00f0c3b300c5ff070020cab300bbff0700c1
:10446c000040eb00c1ff0700b0cab300b7ff070064
:10447c0010c0b300bdff070000cab300b3ff0700b4
:10448c0050c0b300b9ff070010c1b300b7ff07005d
:10449c0070ccb300adff0700f0c0b300b3ff070052
:1044ac0010ccb300a9ff0700f0c9b300afff0700a1
:1044bc0010cbb300a5ff070020cfb300abff070064
:1044cc00b0cbb300a1ff0700f0c1b300a7ff0700fa
:1044dc0040cbb3009dff070000cab300a3ff070049
:1044ec00d0cfb300a1ff0700e0cbb30097ff0700cc
:1044fc0040c0b3009dff070060cab30093ff0700e4
:10450c0010cab30091ff07000040eb0097ff0700b3
:10451c0080cab3008dff07000040eb0093ff07003b
:10452c0000c4b30091ff0700f0cab30087ff070077
:10453c00020007000080fa00000006000200fa00ea
:10454c00b1c5b300c0c1b3008eff0700f1c3b30007
:10455c000040eb0098ff0700c0c5b3007bff0700cd
:10456c000000eb00000f7800050037000040eb0066
:10457c007eff07000040eb007cff07001e0fe800e9
:10458c00f0ff20009e007800808f5000f7ff36006f
:10459c000080fa00000006001800fa0074014700c1
:1045ac00000978007600470001087800b1c5b30017
:1045bc00c0c1b30073ff0700f1c3b3000040eb00b0
:1045cc007dff0700c0c5b30060ff07008000eb0053
:1045dc000e80e800010878004b0037000e80e800e0
:1045ec00100078004300dd00f400470091007800d3
:1045fc0080804000640047003102be002103be00f1
:10460c000498be000690be000e80e80010007800f2
:10461c000000e8004300dd00f40047009100780042
:10462c00808040006c0047003102be002103be00b8
:10463c000498be000690be0000c4b300004f780082
:10464c00290037006400470010007800610060000a
:10465c00004078000004e0000200320000c0eb00d3
:10466c00010037000040eb0040ff07006c004700e2
:10467c001000780061006000004078000004e00049
:10468c000200320000c0eb00010037000040eb00dc
:10469c0036ff0700640047005001be004000be001a
:1046ac008301d1000281d3008180d3000080d3002c
:1046bc0064024700009abe000292be006c004700e4
:1046cc005001be004000be008301d1000281d30026
:1046dc008180d3000080d3006c024700009abe009a
:1046ec000292be001e4fe9001e4078000004e0005c
:1046fc00d4ff3a000e80e800100078008080e800bb
:10470c000e80e800010878000e80e8009000780028
:10471c007600470010007800808f5000afff390002
:10472c000080fa00000006000200fa00004f78003a
:10473c0010ccb30005ff07001e4078000bff0700ec
:10474c000080fa00000006000000fa00d4c2a800a5
:10475c00f0cab300fdfe07000080fa00000006005e
:10476c000000fa00e0cab300f8fe0700d4c2a900aa
:08477c000080fa0000000600b5
:020000040000fa
:1047840016080000020000000000000012080000eb
:1047940004000000000000001a08000000040000eb
:1047a40000000000000800000600000000000000f7
:1047b40018080000020000000200000005070000c5
:1047c4001a0c00002400000000000000060800008d
:1047d40006000000000000003e0c00001c00000069
:1047e400000000000c0800000600000000000000ab
:1047f400760c000004000000000000005a0c0000c9
:104804001c00000002000000286e69006c290000f2
:1048140068076c00094c83006a907400a07ac00099
:1048240000806800880084006c8200008100000021
:104834007a0c0000020000000000000000000000ec
:020000040000fa
:104844000000fa003ffa0700e384290012c0b30015
:104854008040eb000040eb007afc07000040eb00d6
:10486400400007000040eb005a0007000080fa00f7
:10487400000006000200fa00004f780020c0b300d8
:10488400380007001e80fb00801f780090852900f7
:10489400801f78003100200060c7200054ef07001b
:1048a400e487570063c7200012c0b30041c1b300be
:1048b4000040eb0063fc07000080fa0000000600e3
:1048c4000200fa00004f780020c0b3004100070046
:1048d4000080fa00000006000000fa000c26ef0039
:1048e4000030200010308800303828000030880064
:1048f4000080fa00000006000200fa00004f780071
:104904001e80fb00403088000080fa000000060092
:104914000000fa00000000001130800000002800b0
:10492400008060000000e000fbff3a00403080009f
:10493400004078000080fa00000006000000fa0041
:10494400103080004f00de00004078000080fa0044
:10495400000006000000fa00d122a9000080fa003d
:10496400000006000200fa00004f78001e80fb00e1
:10497400e10f500006003200e20f50000600320042
:104984000000e0000d003a00d522a9000b0037001a
:10499400d522a800090037009116800000202000cd
:1049a400008060000000e00002003200d522a9006f
:1049b40002003700d522a800000000000080fa00a1
:1049c400000006000000fa00d102a9000080fa00ed
:1049d400000006000200fa00004f78001e80fb0071
:1049e400e10f500006003200e20f500006003200d2
:1049f4000000e0000d003a00d502a9000b003700ca
:104a0400d502a8000900370091168000001020008c
:104a1400008060000000e00002003200d502a9001e
:104a240002003700d502a800000000000080fa0050
:104a3400000006000000fa0000042300203a880069
:104a44000080eb00601988000080fa000000060076
:104a54000000fa00f7ff070018000700bdff070079
:104a6400d8ff070094f9070056fc07006cfd070007
:104a740073ff0700adf9070080fc070096fd0700ef
:104a8400fcff37000000fa0090408000a140800045
:104a94000080fa00000006000000fa009040800048
:104aa400a140800061004000e08048009040880000
:104ab400a14088000080fa00000006000000fa000f
:104ac400e0542200100007000080fa0000000600f5
:020000040000fa
:104ad400f03fb1000180b10006003500ee0309008b
:104ae40000000000403fb1000180b100fbff3d0029
:104af4001000b000203fb000020035000080090023
:084b04000000000000000600a3
:020000040000fa
:104b0c000200fa00000f78009e007800b140880087
:104b1c0000022800f0088800a00f2000d0088800b0
:0c4b2c009760a8000080fa00000006005e
:020000040000fa
:020000040001f9
:0457f8009f79000095
:020000040000fa
:020000040001f9
:0457fc003e3f00002c
:00000001FF
