:020000040000fa
:04005c00f4020000aa
:020000040000fa
:04001000f4020000f6
:020000040000fa
:04025c00f4020000a8
:020000040000fa
:04021000f4020000f4
:020000040000fa
:04027400f402000090
:020000040000fa
:04033400f4020000cf
:020000040000fa
:04027000f402000094
:020000040000fa
:04022c00f4020000d8
:020000040000fa
:04023c00f4020000c8
:020000040000fa
:0402bc00f402000048
:020000040000fa
:0402c000f402000044
:020000040000fa
:0402c400f402000040
:020000040000fa
:04022800f4020000dc
:020000040000fa
:04027800f40200008c
:020000040000fa
:04029c00f402000068
:020000040000fa
:04026000f4020000a4
:020000040000fa
:04026400f4020000a0
:020000040000fa
:04027c00f402000088
:020000040000fa
:04028000f402000084
:020000040000fa
:04028400f402000080
:020000040000fa
:04028800f40200007c
:020000040000fa
:0402b000f402000054
:020000040000fa
:0402b400f402000050
:020000040000fa
:0402b800f40200004c
:020000040000fa
:04023800f4020000cc
:020000040000fa
:0402c800f40200003c
:020000040000fa
:0402d000f402000034
:020000040000fa
:0402d400f402000030
:020000040000fa
:0402d800f40200002c
:020000040000fa
:0402e000f402000024
:020000040000fa
:0402e400f402000020
:020000040000fa
:0402e800f40200001c
:020000040000fa
:0402f400f402000010
:020000040000fa
:0402f800f40200000c
:020000040000fa
:0402fc00f402000008
:020000040000fa
:04030000f402000003
:020000040000fa
:04030400f4020000ff
:020000040000fa
:04030800f4020000fb
:020000040000fa
:04030c00f4020000f7
:020000040000fa
:04031000f4020000f3
:020000040000fa
:04031400f4020000ef
:020000040000fa
:04031800f4020000eb
:020000040000fa
:04031c00f4020000e7
:020000040000fa
:04032400f4020000df
:020000040000fa
:04032800f4020000db
:020000040000fa
:04033800f4020000cb
:020000040000fa
:04033c00f4020000c7
:020000040000fa
:04034000f4020000c3
:020000040000fa
:04034400f4020000bf
:020000040000fa
:04034800f4020000bb
:020000040000fa
:04026c00f402000098
:020000040000fa
:0402f000f402000014
:020000040000fa
:04021800f4020000ec
:020000040000fa
:04023000f4020000d4
:020000040000fa
:04024000f4020000c4
:020000040000fa
:04028c00f402000078
:020000040000fa
:04029000f402000074
:020000040000fa
:0402cc00f402000038
:020000040000fa
:04020c00f4020000f8
:020000040000fa
:0402dc00f402000028
:020000040000fa
:04032000f4020000e3
:020000040000fa
:04020800f4020000fc
:020000040000fa
:04021c00f4020000e8
:020000040000fa
:04022000f4020000e4
:020000040000fa
:04022400f4020000e0
:020000040000fa
:04026800f40200009c
:020000040000fa
:0402ec00f402000018
:020000040000fa
:04024c00f4020000b8
:020000040000fa
:04025000f4020000b4
:020000040000fa
:0402a800f40200005c
:020000040000fa
:0402ac00f402000058
:020000040000fa
:04021400f4020000f0
:020000040000fa
:04023400f4020000d0
:020000040000fa
:04024400f4020000c0
:020000040000fa
:04024800f4020000bc
:020000040000fa
:04029400cc02000098
:020000040000fa
:04029800f40200006c
:020000040000fa
:04032c00f4020000d7
:020000040000fa
:04025400f4020000b0
:020000040000fa
:04025800f4020000ac
:020000040000fa
:04033000f4020000d3
:020000040000fa
:0402a000f402000064
:020000040000fa
:0402a400f402000060
:020000040000fa
:04007400f402000092
:020000040000fa
:04013400f4020000d1
:020000040000fa
:04007000f402000096
:020000040000fa
:04002c00f4020000da
:020000040000fa
:04003c00f4020000ca
:020000040000fa
:0400bc00f40200004a
:020000040000fa
:0400c000f402000046
:020000040000fa
:0400c400f402000042
:020000040000fa
:04002800f4020000de
:020000040000fa
:04007800f40200008e
:020000040000fa
:04009c00f40200006a
:020000040000fa
:04006000f4020000a6
:020000040000fa
:04006400f4020000a2
:020000040000fa
:04007c00f40200008a
:020000040000fa
:04008000f402000086
:020000040000fa
:04008400f402000082
:020000040000fa
:04008800f40200007e
:020000040000fa
:0400b000f402000056
:020000040000fa
:0400b400f402000052
:020000040000fa
:0400b800f40200004e
:020000040000fa
:04003800f4020000ce
:020000040000fa
:0400c800f40200003e
:020000040000fa
:0400d000f402000036
:020000040000fa
:0400d400f402000032
:020000040000fa
:0400d800f40200002e
:020000040000fa
:0400e000f402000026
:020000040000fa
:0400e400f402000022
:020000040000fa
:0400e800f40200001e
:020000040000fa
:0400f400f402000012
:020000040000fa
:0400f800f40200000e
:020000040000fa
:0400fc00f40200000a
:020000040000fa
:04010000f402000005
:020000040000fa
:04010400f402000001
:020000040000fa
:04010800f4020000fd
:020000040000fa
:04010c00f4020000f9
:020000040000fa
:04011000f4020000f5
:020000040000fa
:04011400f4020000f1
:020000040000fa
:04011800f4020000ed
:020000040000fa
:04011c00f4020000e9
:020000040000fa
:04012400f4020000e1
:020000040000fa
:04012800f4020000dd
:020000040000fa
:04013800f4020000cd
:020000040000fa
:04013c00f4020000c9
:020000040000fa
:04014000f4020000c5
:020000040000fa
:04014400f4020000c1
:020000040000fa
:04014800f4020000bd
:020000040000fa
:04006c00f40200009a
:020000040000fa
:0400f000f402000016
:020000040000fa
:04001800f4020000ee
:020000040000fa
:04003000f4020000d6
:020000040000fa
:04004000f4020000c6
:020000040000fa
:04008c00f40200007a
:020000040000fa
:04009000f402000076
:020000040000fa
:0400cc00f40200003a
:020000040000fa
:04000c00f4020000fa
:020000040000fa
:0400dc00f40200002a
:020000040000fa
:04012000f4020000e5
:020000040000fa
:04000800f4020000fe
:020000040000fa
:04001c00f4020000ea
:020000040000fa
:04002000f4020000e6
:020000040000fa
:04002400f4020000e2
:020000040000fa
:04006800f40200009e
:020000040000fa
:0400ec00f40200001a
:020000040000fa
:04004c00f4020000ba
:020000040000fa
:04005000f4020000b6
:020000040000fa
:0400a800f40200005e
:020000040000fa
:0400ac00f40200005a
:020000040000fa
:04001400f4020000f2
:020000040000fa
:04003400f4020000d2
:020000040000fa
:04004400f4020000c2
:020000040000fa
:04004800f4020000be
:020000040000fa
:04009800f40200006e
:020000040000fa
:04012c00f4020000d9
:020000040000fa
:04005400f4020000b2
:020000040000fa
:04005800f4020000ae
:020000040000fa
:04013000f4020000d5
:020000040000fa
:0400a000f402000066
:020000040000fa
:0400a400f402000062
:020000040000fa
:080000000002040000000000f2
:020000040000fa
:10040000afc520000e7f22000e0188000000000012
:10041000000020000000e000020032000001200087
:100420002002880014000700710007000000e000af
:1004300003003a0060542100010020000200370050
:100440000000200001002000810f70000100320038
:1004500014000700000020000000e000020032004d
:100460000000020000000000301602000000000042
:100470000040da000000fe004440a900807f200018
:100480000000e0000300320000002000a00188000e
:100490004440a800000006008a1f78008b1f7800e7
:1004a0000000060091018800800478000000eb0045
:1004b0001a003700e284440032a0b4009905ba0063
:1004c000e284440032a0b4009906ba00e2844400f9
:1004d00032a0b4000006eb00476fde00fd07b2005b
:1004e000636ce10003003a00ebff07000000eb0043
:1004f0000a003700606ce10004003a00005deb0088
:100500008b05e900fdff3e00040037006168e10053
:10051000010032000086eb000b00070019c7ba008b
:100520001905ba000e04e00003003a000a00e000da
:10053000e0ff3a0000000600fe07b2009e018800be
:100540008a047800f5ff3700395dba008b05e900b1
:100550000c003200295dba008b05e900080032006a
:100560000c00e00003003a00e284440032a0b40032
:10057000f5ff370019ddba008b05e900faff3a00f4
:100580008904e800e184440032a0b40000000600c1
:1005900000000000000000003600f800809fbe0050
:1005a000829fbe00849fbe00869fbe003400f8007c
:1005b00000002000a00188000000fa008760a90068
:1005c000b0408000000001000080fa003400f90013
:1005d0004f03be004f02be004f01be004f00be00e1
:1005e0003600f900004006000040da000000fe007e
:0405f0000000050002
:020000040000fa
:04009400cc0200009a
:020000040000fa
:020000040001f9
:0457fc003e3f00002c
:020000040000fa
:020000040001f9
:0457f8009f79000095
:020000040000fa
:1005f400000000000000000000000000005f000098
:1006040000000000040300000004000003140000c4
:100614007f1400007f140000242a00007f2a0000b9
:10062400126300001308000064630000304e0000f1
:10063400512e0000500000000403000000000000e0
:10064400001c0000224100000000000041220000c4
:100654001c0000002a1c00007f1c00002a08000067
:10066400083e0000080800000040000030000000c0
:1006740000080000080800000808000000600000ee
:100684006000000000600000100800000403000087
:100694003e510000494500003e000000427f00003a
:1006a4004000000042610000514900004622000061
:1006b400414900004936000018140000127f000070
:1006c4001027000045450000453900003c4a000061
:1006d40049490000300100007109000005030000d1
:1006e4003649000049490000360600004949000027
:1006f400291e000000360000360000000000000043
:1007040056360000000000000814000022410000da
:100714000014000014140000141400000041000030
:100724002214000008020000015100000906000024
:100734003e4100005d5500005e7c00001211000087
:10074400127c00007f49000049490000363e000049
:100754004141000041220000417f0000414100006e
:100764003e7f000049490000414100007f0900002c
:1007740009090000093e00004141000051720000d7
:100784007f080000080800007f000000417f00008f
:100794004100000021410000413f0000017f0000b2
:1007a40008140000224100007f4000004040000087
:1007b400407f000002040000027f00007f0400006c
:1007c400081000007f3e000041410000413e00004f
:1007d4007f09000009090000063e000041510000a5
:1007e400215e00007f090000192900004626000050
:1007f4004949000049320000010100007f01000066
:10080400013f000040400000403f00001f20000066
:10081400402000001f7f000020180000207f0000ff
:10082400631400000814000063030000047800004f
:10083400040300006151000049450000430000002a
:100844007f41000041000000030400000810000084
:1008540060000000414100007f000000040200002d
:10086400010200000440000040400000404000003d
:100874000000000003040000003000004a4a0000a9
:10088400327c00007f480000483000000030000047
:1008940048480000480000000030000048480000bc
:1008a4007f3800005454000054580000087e0000b3
:1008b400090100000206000049490000453e00000d
:1008c4007f1000000808000070000000487a000053
:1008d4004000000020400000443d0000007f000074
:1008e4001028000044000000000100007f00000008
:1008f4000078000004180000047800007c08000060
:100904000404000078380000444400004438000027
:100914007e120000120c0000000000000c12000007
:10092400127e00007c080000040400000848000057
:100934005454000054240000043f000044400000cc
:10094400203c000040400000207c00001c200000ef
:10095400402000001c3c000040300000403c0000ef
:1009640044280000102800004426000048480000e5
:10097400483e000044640000544c00004408000059
:100984003641000041000000000000007700000034
:100994000000000041410000360800000201000090
:1009a400020400000200000000000000000000003b
:1009b4000000000000000000000000000000000033
:1009c4000000000000000000000000000000000023
:1009d40000000000bf010000bf0100000000000093
:1009e4000000000000000000000000000f000000f4
:1009f4000f000000000000000f0000000f000000c6
:100a0400000000006c000000ff010000ff01000076
:100a14006c000000ff010000ff0100006c000000fa
:100a24004c00000092000000ff0100009200000052
:100a3400ff01000092000000640000008400000038
:100a44004a000000240000001000000048000000dc
:100a5400a400000042000000c00000002e010000bd
:100a64001101000011010000ae0000004000000070
:100a7400a000000000000000000000000f000000c3
:100a84000f00000000000000000000000000000053
:100a940000000000000000007c000000fe000000d8
:100aa40083010000010100000000000000000000bc
:100ab4000101000083010000fe0000007c00000032
:100ac400000000000000000092000000540000003c
:100ad40038000000fe000000380000005400000050
:100ae4009200000010000000100000001000000040
:100af400fe000000100000001000000010000000c4
:100b0400000000000001000080010000f00100006e
:100b1400f0000000000000000000000030000000b1
:100b24003000000030000000300000003000000001
:100b34003000000030000000000000000000000051
:100b4400800100008001000000000000000000009f
:100b54000000000080010000c000000060000000f0
:100b640030000000180000000c0000000600000027
:100b74007c000000fe000000c701000083010000ab
:100b8400c7010000fe0000007c000000000000001f
:100b94000c0000008e010000ff010000ff010000b6
:100ba400800100000000000084010000c601000074
:100bb400e7010000f3010000bb0100009f010000f9
:100bc4008e010000c6000000c70100008301000080
:100bd4009b0100009b010000ff010000e6000000f3
:100be40070000000780000007c0000006e0000002f
:100bf40067000000f3010000f1010000df000000c5
:100c0400df0100009b0100009b0100009b0100002c
:100c1400fb010000f3000000f8000000fc010000ec
:100c2400be010000b6010000b7010000f30100009e
:100c3400e3000000c3010000e301000073000000b2
:100c44003b0000001f0000000f0000000700000030
:100c5400ee000000ff0100009b0100009b0100006a
:100c64009b010000ff010000ee0000000e010000e7
:100c74009f0100009b010000db000000fb0000005e
:100c84007f0000003e0000000000000000000000a3
:100c9400ee000000ee000000ee0000000000000086
:100ca40000000000000000000001000080000000bf
:100cb400d800000058000000000000000000000000
:100cc40010000000380000007c000000ee0000006e
:100cd400c70100008301000001010000cc000000f6
:100ce400cc000000cc000000cc000000cc000000d0
:100cf400cc000000cc0000000101000083010000d2
:100d0400c7010000ee0000007c0000003800000075
:100d1400100000000600000007000000a30100000e
:100d2400b30100003b0000001f0000000e000000a3
:100d3400fe00000083010000390100002d010000c5
:100d440039010000c70000003e000000fc01000063
:100d5400fe0100006700000063000000670000005f
:100d6400fe010000fc010000ff010000ff01000083
:100d74009b0100009b0100009b010000ff0100009b
:100d8400f6000000fe000000ff010000c7010000a3
:100d94008301000083010000c7010000c6000000b9
:100da400ff010000ff010000830100008301000037
:100db400c7010000fe0000007c000000ff010000ed
:100dc400ff0100009b0100009b0100009b0100004b
:100dd4008301000083010000ff010000ff01000007
:100de4001b0000001b0000001b00000003000000ab
:100df40003000000fe000000ff0100008701000066
:100e0400b3010000b3010000f7010000f600000088
:100e1400ff010000ff01000018000000180000009e
:100e240018000000ff010000ff01000000000000a6
:100e340000000000ff010000ff010000ff010000ae
:100e44000000000000000000e0000000e0010000dd
:100e5400800100008001000080010000ff0100000b
:100e6400ff000000ff010000ff0100003800000047
:100e74007c000000ee000000c701000083010000b8
:100e8400ff010000ff01000080010000800100005c
:100e9400800100008001000080010000ff010000cb
:100ea400fe0100001c000000380000001c000000cf
:100eb400fe010000ff010000ff010000ff0100002f
:100ec4001c0000003800000070000000ff0100005a
:100ed400ff010000fe000000ff010000c701000048
:100ee40083010000c7010000ff010000fe000000b4
:100ef400ff010000ff010000330000003300000088
:100f0400330000003f0000001e0000007e000000cf
:100f1400ff000000c3000000c3000000c301000084
:100f2400ff0100007e010000ff010000ff0100003e
:100f340033000000f3000000f3010000bf010000d3
:100f44001e010000ce000000df0100009b01000034
:100f5400bb010000b3010000f7010000e60000003f
:100f64000300000003000000ff010000ff01000077
:100f7400ff0100000300000003000000ff00000068
:100f8400ff010000800100008001000080010000da
:100f9400ff010000ff0000003f0000007f00000090
:100fa400e0000000c0010000e00000007f0000003d
:100fb4003f000000ff000000ff010000c00100002e
:100fc400e0000000c0010000ff010000ff0000007d
:100fd400c7010000ee0100007c00000038000000a2
:100fe4007c000000ee010000c70100000f000000bb
:100ff4001f000000f8010000f0010000f8010000eb
:101004001f0000000f000000c3010000e301000006
:10101400f3010000bb0100009f0100008f010000ec
:1010240087010000ff010000ff01000083010000b0
:1010340083010000830100000000000000000000a4
:1010440003000000060000000c000000180000006f
:101054003000000060000000c0000000000000003c
:1010640000000000830100008301000083010000f0
:10107400ff010000ff010000180000000c00000048
:101084000600000003000000060000000c00000041
:1010940018000000800100008001000080010000b1
:1010a4008001000080010000800100008001000038
:1010b400c0ff0000ff030000f0ff0000ff0f00006e
:1010c400f8ff0000ff1f00003c000000003c00008f
:1010d4001e000000007800000e00000000700000f8
:1010e4000700000000e000000700000000e000002e
:1010f4000700000000e000000700000000e000001e
:101104000e000000007000001e00000000780000c7
:101114003c000000003c0000f8ff0000ff1f00003e
:10112400f0ff0000ff0f0000c0ff0000ff030000fd
:10113400004000000000000000600000000000000b
:1011440000700000000000000078000000000000b3
:10115400003c000000000000001e00000000000031
:10116400000f0000000000008007000000000000e5
:10117400c003000000000000e001000000000000c7
:10118400f0000000000000007800000000000000f3
:10119400fcff0000ffff0000feff0000ffff000057
:1011a400ffff0000ffff000000000000000000003f
:1011b4006000000080ff000070000000c0ff00001d
:1011c40078000000e0ff00003c000000f0e00000b8
:1011d4001e00000078e000000f0000003ce000006a
:1011e400070000001ee00000070000000fe0000000
:1011f4000780000007e0000007c0000003e00000d3
:1012040007e0000001e000000ff0000000e0000033
:101214001e78000000e00000fc3f000000e0000039
:10122400f81f000000e00000f00f000000e00000e4
:10123400e000000070000000f0000000000f00005b
:10124400f8000000001f00003c000000003c00000b
:101254001e000000007800000fc0000001f0000034
:1012640007c0000001e0000007c0000001e000002a
:1012740007c0000001e0000007c0000001e000001a
:101284000fe0000003f000001ef0000007780000eb
:101294003c7800000f3c0000f8bf0000ff1f000076
:1012a400f01f0000ff0f0000c00f0000fe07000049
:1012b40000f800001f00000000fc00001f000000f8
:1012c40000fe00001f000000000f00001c000000d2
:1012d400800700001c000000c00300001c00000088
:1012e400e00100001c000000f00000001c000000f1
:1012f400780000001c0000003c0000001c000000fe
:101304001e000000feff00000f000000feff0000b2
:1013140078000000feff00003c0000001c000000fc
:101324001e0000001c0000000f0000001c00000054
:10133400ff7f000080070000ff7f0000800f000097
:10134400ff7f0000801f000007700000003c0000c9
:1013540007700000007800000770000000f0000033
:101364000770000000e000000770000000e00000cb
:101374000770000000e000000770000000e00000bb
:1013840007f0000000f0000007e000000178000012
:1013940007c00000033c000007f80000ff1f000026
:1013a40007f00000ff0f000007e00000ff07000047
:1013b40000ff0000ff0f0000e0ff0000ff1f00001f
:1013c400f8ff0000ff3f0000fec30000077c0000a0
:1013d400fce1000003f80000fce0000001f0000064
:1013e4003ee0000000e000001ee0000000e000001d
:1013f4000fe0000000e000000fe0000000e000004b
:1014040007e0000001f0000007e0000003f800001e
:1014140000c00000077c000000f80000ff3f00004f
:1014240000f00000ff1f000000e00000ff0f0000bc
:10143400070000000000000007000000000000009a
:10144400070000000000000007000000000000008a
:101454000700000000c000000700000000f00000ca
:101464000700000000fe000007000000c07f00002d
:1014740007000000f00f000007000000fc0100005e
:10148400070000003f00000007c000000700000044
:1014940007f0000001000000d73f0000000000003a
:1014a400ff070000000000007f00000000000000b3
:1014b400f0030000fe0f0000f00f0000ff1f00000b
:1014c400f81f0000ff3f00003c7000000f78000090
:1014d4001ee0000007f000000ec0000003e0000062
:1014e40007c0000001c0000007c0000001c00000e8
:1014f40007c0000001c0000007c0000001c00000d8
:101504000ec0000003e000000ee0000007f0000041
:101514001c7000000f780000f81f0000ff3f00005f
:10152400f00f0000ff1f0000f0030000fe0f00009a
:10153400801f000000000000f03f000000000000d9
:10154400f87f0000000000003cf000000080000074
:101554001ee0000001c000000fc0000003e0000016
:1015640007c0000001f0000007c00000017c00007b
:1015740007c00000013e000007c00000c11f0000ba
:101584000fc00000e30f00001ee00000f70300009e
:101594003cf00000fb010000f8ff0000ff00000029
:1015a400f0ff00003f000000e0ff00000700000023
:1015b400050700001007000009200000202000009b
:1015c400305e00005a39000054450000434c0000ce
:1015d4004120000054450000535400000000000066
:020000040000fa
:1015e4000200fa000000eb00000f78000900370049
:1015f4001e007800a18120004300dd00008240002d
:101604006000b8006011b800009abe000292be00eb
:101614001e0fe800f00720009e007800808f500025
:10162400f3ff36000028ef000228ef000468ef0003
:10163400a0ad28001040780018e8b700d0ad28000d
:101644001040780019e8b7002e0207000080fa0065
:10165400000006000000fa0001082000a08120001c
:10166400930207000080fa00000006000200fa005e
:101674000000eb00000f7800090037001e0078001e
:10168400a18120004300dd00008240006000b8001a
:101694006011b800009abe000292be001e0fe8005e
:1016a400f00720009e007800808f5000f3ff360082
:1016b4000080fa00000006000400fa00889fbe00c3
:1016c4008a1f7800004f780011479800224798003d
:1016d4001e4078000004e000470035009e40900062
:1016e400f0c3b30080cf500045003e002e40900070
:1016f4000004e0001e0032001e84fb001e80fb007c
:101704004300dd00a1812000008040003002be00c3
:101714002003be001e4090008084fb0010002000c7
:10172400010020006011b800090578000a05e900ed
:10173400050033000000d0008180d2000281d20075
:101744008381d200f9ff37000000720081807200ab
:101754000201730083817300a58120004342dd00f0
:1017640004824200009abe000292be0025003700a7
:101774001e84fb001e80fb004300dd00a1812000cd
:10178400008040003002be002003be001e409000d6
:101794008084fb0010002000010020006011b800cc
:1017a400090578000a05e900050033000000d000af
:1017b4008180d2000281d2008381d200f9ff3700f8
:1017c4000080ea008180ea000281ea008381ea0065
:1017d4000000620081806200020163008381630073
:1017e400a58120004342dd0004824200009abe002d
:1017f4000292be0003003700000000000100370021
:10180400000000004f0578004f04be000080fa007d
:10181400000006001400fa00889fbe0000579800dc
:10182400115798002257980033579800ae509000f3
:101834000e50900080cf5000060036002e509000cd
:101844008080fb000e5090000080fb000080500060
:10185400050037000e5090008080fb002e50900051
:101864000080fb000080500030079800be509000bc
:101874001e50900080cf5000060036003e5090006d
:101884008080fb001e5090000080fb000080500010
:10189400050037001e5090008080fb003e509000f1
:1018a4000080fb0000805000400798008e5090009c
:1018b4002e50900080cf5000020031001000200014
:1018c400010037000080eb00500798009e50900004
:1018d4003e50900080cf50000200310010002000e4
:1018e400010037000080eb0060079800be00900004
:1018f4004e009000008f50000e5090000080fb00be
:10190400100798001e5090000080fb0020079800ec
:1019140001003700000000001e0090000000e000fd
:10192400270035009e009000f0072000808f5000b3
:1019340023003c002e0090000000e0002000350051
:10194400ae009000f0032000808f50001c003c008b
:101954001e0090004300dd00a181200000804000b3
:101964003002be002003be00100020000100200051
:101974006011b8002e049000880478008904e900fe
:10198400050033000000d0008180d2000281d20023
:101994008381d200f9ff3700000072008180720059
:1019a40002017300838173001e029000a581200050
:1019b4004322dd0004824200009abe000292be006f
:1019c4002e5090008080fb001e009000808f5000fd
:1019d40005003a003e5090008080fb002e009000ed
:1019e400808f5000190032001e0078000000400073
:1019f400700798004e0090008000ea007e0090007e
:101a0400808f500006003d004e0090001e0f100015
:101a14009e0090005e009000008040001007980037
:101a2400fe0090003e009000808f5000b9ff3d0002
:101a34003e0090001e0f4000ae0090006e0090002b
:101a44000080400020079800b3ff3700000000002a
:101a54004f04be000080fa00000006000200fa00f5
:101a6400004f78001e407800e24f5000020036001c
:101a74000040eb00004f78001e41780041802000b8
:101a8400824878001e80fb00a1ad280061407800e8
:101a940018e8b7001e80fb00d1ad28006140780033
:101aa40019e8b7000080fa00000006000a00fa00f6
:101ab400889fbe008a1f7800004f980004c8bf00aa
:101ac4000080fb0001ae2800e14078000e48900041
:101ad40080cf5000c3003c0004c8bf000080fb005e
:101ae40031ae2800e14078000e48900080cf5000cd
:101af400be0035000e4890008000fb0004c8bf0003
:101b04000080fb0002ae2800624078000000fb0069
:101b1400008050008000780018c8bf000080fb00df
:101b24000088b90000007800300798000040eb00fe
:101b3400004f78009e0037009e80fb00004080002c
:101b440080804000f0072000808f50009d003c0002
:101b540004c8bf000080fb00e10f50000300320006
:101b6400e20f50000c003200150037009e80fb008d
:101b74003e0090000080400080004000a04d2800fe
:101b84000080400010007800cf80de00100798002d
:101b940021079800140037009e80fb003e0090004f
:101ba40000804000c200dd00a085280000804000c5
:101bb4001001be0012079800230798000a0037009e
:101bc4009e80fb003e00900000804000a12f280072
:101bd400614078000000fb00cf80de001007980011
:101be40021079800000000000040eb001047980017
:101bf400680037001e4090008080fb001040800089
:101c040080804000f0032000808f500066003c007c
:101c14001e4090000082fb001e019000ae01900067
:101c2400f002120004003b008502ea000598de0081
:101c3400cf98de0004003700851add000410de00b2
:101c4400008072008498de0000007800610060006b
:101c5400004078000004e000240032009e80fb0075
:101c640000408000008440009e80fb000040800013
:101c7400008040004300dd00a1812000008040007e
:101c84003002be002003be001e4090008080fb0096
:101c940010408000808440001000200001002000db
:101ca4006011b800090578000a05e9000500330051
:101cb4000000d0008180d2000281d2008381d20052
:101cc400f9ff370000007200818072000201730086
:101cd40083817300a58120004342dd000482420019
:101ce400009abe000292be00270037009e80fb00cf
:101cf40000408000008440009e80fb000040800083
:101d0400008040004300dd00a181200000804000ed
:101d14003002be002003be001e4090008080fb0005
:101d2400104080008084400010002000010020004a
:101d34006011b800090578000a05e90005003300c0
:101d44000000d0008180d2000281d2008381d200c1
:101d5400f9ff37000080ea008180ea000281ea008e
:101d64008381ea0000006200818062000201630056
:101d740083816300a58120004342dd000482420088
:101d8400009abe000292be001e4090000040e8008f
:101d94001047980019c8bf009e40900080cf5000a3
:101da40094ff390001003700000000001e4fe800d6
:101db40018c8bf009e40780080cf50005eff3900f5
:101dc400010037000000000018c8bf000080fb00bd
:101dd4008000e8000040800000804000004088004f
:101de400030037000000000001003700000000007d
:101df4004f0578004f04be000080fa000000060082
:101e04000200fa00000f7800040037001e0078007a
:101e14001040780025ff07001e0fe8001e00780020
:101e2400104078000004e000f8ff3a000080fa0057
:101e3400000006000600fa00004f780011479800e1
:101e440022479800230798002e40900003ff0700c4
:101e54001e80fb00004088001e4090000080fb00b4
:101e6400104088002e009000e5ff07000080fa0073
:101e7400000006000200fa00004f7800d4a2a90076
:101e84001e407800e9020700d4a2a8000080fa00ee
:101e9400000006000200fa00004f78001e4078009f
:101ea400e20207000080fa00000006000200fa00c7
:101eb400004f78001147980050c1b300edff0700b0
:101ec4001e407800f3ff07001e409000f1ff07005a
:101ed4000080fa00000006000200fa00004f7800bb
:101ee4001147980050c7b300e2ff07001e40780076
:101ef400e8ff07001e409000e6ff07000080fa009c
:101f0400000006000000fa00c9e2a900d0a2a9005e
:101f1400c9a2a900c9c2a900d0e2a900cda2a90002
:101f2400ba020700cde2a900d4e2a90000c820004b
:101f34000100200069030700d4e2a80000c82000c3
:101f44000100200065030700e0cab300c9ff0700d1
:101f540030cbb300c7ff070010c9b300cdff0700a3
:101f6400a0ccb300c3ff0700f0c3b300c9ff070050
:101f740020cab300bfff07000040eb00c5ff070005
:101f8400b0cab300bbff070010c0b300c1ff070015
:101f940000cab300b7ff070050c0b300bdff07007d
:101fa40010c1b300bbff070070ccb300b1ff070042
:101fb400f0c0b300b7ff070010ccb300adff0700bb
:101fc400f0c9b300b3ff070010cbb300a9ff0700ab
:101fd40020cfb300afff0700b0cbb300a5ff0700cd
:101fe400f0c1b300abff070040cbb300a1ff070073
:101ff40000cab300a7ff0700d0cfb300a5ff0700b6
:10200400e0cbb3009bff070040c0b300a1ff070073
:1020140060cab30097ff070010cab30095ff07001a
:102024000040eb009bff070080cab30091ff07004c
:102034000040eb0097ff070000c4b30095ff0700c2
:10204400f0cab3008bff0700020007000080fa000b
:10205400000006000200fa00b1c5b300c0c1b3001d
:1020640092ff0700f1c3b3000040eb009aff0700a2
:10207400c0c5b3007fff07000000eb00000f78002d
:10208400050037000040eb0082ff07000040eb0032
:1020940080ff07001e0fe800f0ff20009e0078007c
:1020a400808f5000f7ff36000080fa000000060021
:1020b4001800fa00200f9800310f9800b1c5b30042
:1020c400c0c1b30079ff0700f1c3b3000040eb00c7
:1020d40081ff0700c0c5b30066ff07000000eb00e6
:1020e40010079800490037001e0090004300dd00ef
:1020f400ae089000008040003002be002003be0005
:102104002407980035079800460798005707980059
:102114001e0090000000e8004300dd00ae089000bf
:10212400008040003002be002003be006407980017
:1021340075079800060f9800170f980000c4b300a5
:10214400004f78002b0037002e00900061006000e3
:10215400004078000004e0000200320000c0eb0000
:10216400010037000040eb004aff07006e009000ba
:1021740061006000004078000004e00002003200ca
:1021840000c0eb00010037000040eb0041ff0700f6
:102194002e009000be0090004e019000de019000e1
:1021a4008301d1000281d3008180d3000080d30059
:1021b40020079800310798004207980053079800b9
:1021c4006e009000fe0090000e0990009e099000a1
:1021d4008301d1000281d3008180d3000080d30029
:1021e4006007980071079800020f9800130f980079
:1021f4001e4fe9001e4078000004e000d2ff3a00c0
:102204001e0090000080e800100798009e009000d7
:102214003e089000808f5000b3ff39000080fa0020
:10222400000006000200fa00004f780010ccb30052
:1022340010ff07001e40780016ff07000080fa0018
:10224400000006000000fa00d4c2a800f0cab300df
:1022540008ff07000080fa00000006000000fa00f2
:10226400e0cab30003ff0700d4c2a9000080fa004b
:10227400000006000200fa00004f78001e80fb00f8
:10228400e10f50000c003200e10f500003003c004d
:102294000000e000060032000d003700e20f50009d
:1022a40007003200e30f5000070032000800370037
:1022b400c0e2a90006003700c082a900040037006c
:1022c400c062a90002003700c042a900000000005b
:1022d4000080fa00000006000200fa00004f7800b7
:1022e4001e80fb00e10f50000c003200e10f500093
:1022f40003003c000000e000060032000d0037003f
:10230400e20f500007003200e30f500007003200d4
:1023140008003700c0e2a80006003700c082a80009
:1023240004003700c062a80002003700c042a800c1
:10233400000000000080fa00000006000200fa001d
:10234400004f78001e80fb00e10f500008003200af
:10235400e20f50000a0032000000e0000c003a00d6
:10236400101680000000d1006140600009003700b1
:1023740010168000004078006140600005003700be
:10238400901680004300de006140600001003700c9
:1023940010c0b3000080fa00000006000200fa003a
:1023a4000040eb00004f78000d0037001e80fb005a
:1023b400a1c120000041eb00827078001e80fb0068
:1023c40061c220000041eb00827078001e80fb0097
:1023d40021c320000041eb00827078001e4fe8000a
:1023e4001e407800eb4f5000f0ff3600c022a800da
:1023f4006860a800c002a8006840a800d062a800d5
:102404006b80a800c4e2a900c0e2a800c482a900ad
:10241400c082a800c462a900c062a800c442a90086
:10242400c042a8000080fa00000006000200fa0082
:10243400004f78001e4178006180200082487800b7
:102444000080fa00000006000800fa0010020700ed
:1024540010079800210798004040800051408000f8
:102464001e019000ae0190000001510081815900cd
:102474004000200001002000800f5100818f59008e
:102484006c0036001e019000ae01900042408800ae
:10249400534088000040eb00004f78006100370093
:1024a4001e40780073ff0700000f20000100200089
:1024b4000a0207000040eb00104798005300370061
:1024c4001e4078006300b900000078008040780066
:1024d4001e40900000c04000604798001e409000dd
:1024e40096ff07000080fb000000e9004f00de00bb
:1024f400704798006e4090000080fb0061c220008d
:10250400e14078007e40900080cf50000a00320005
:102514006e4090000080fb0021c3200042c0b30045
:10252400827078006e4090000080fb0061c2200041
:10253400fe419000837078006e4090000080fb00a4
:1025440021c32000614078000004e0002c00320028
:102554006e4090000080fb0021c32000e140780021
:102564000141e90021c32000827078006e40900090
:102574000080fb0021c32000614078000004e000db
:102584001f003a007e4090000004e0000e0032007c
:102594006e4090000080fb00a1c1200061407800e3
:1025a4000004e00008003a006e4090000080fb0048
:1025b400a1c1200012c0b300827078006e40900068
:1025c400930107000e0037007e4090000004e000f5
:1025d4000b003a006e4090000080fb00a1c1200077
:1025e400614078000004e000050032006e40900075
:1025f4000080fb00a1c120000041eb008270780044
:102604001e4090000040e800104798001e409000d3
:10261400e24f5000aaff36001e4078002eff07004c
:102624001e4fe8001e407800e34f50009cff360028
:1026340001003700000000000080fa0000000600de
:102644000200fa00004f78001e80fb00e10f5000ea
:102654000c003200e10f500003003c000000e000d9
:10266400060032000d003700e20f50000700320070
:10267400e30f50000700320008003700c102a90030
:1026840006003700c122a90004003700c142a90096
:1026940002003700c142a900000000000080fa00d7
:1026a400000006000200fa00004f78001e80fb00c4
:1026b400e10f50000c003200e10f500003003c0019
:1026c4000000e000060032000d003700e20f500069
:1026d40007003200e30f5000070032000800370003
:1026e400c102a80006003700c122a8000400370078
:1026f400c142a80002003700c142a8000000000047
:102704000080fa00000006000200fa00004f780082
:102714001e80fb00e10f500008003200e20f500061
:102724000a0032000000e0000c003a00901680001d
:102734004200de006140600009003700901680000e
:102744000000d10061406000050037009016800051
:1027540000407800614060000100370010c0b30001
:102764000080fa00000006000200fa000040eb00be
:10277400004f78000d0037001e80fb00e1c32000ed
:102784000041eb00827078001e80fb0071c42000c1
:102794000041eb00827078001e80fb0001c5200020
:1027a4000041eb00827078001e4fe8001e40780064
:1027b400e84f5000f0ff3600d042a8006940a8005e
:1027c400d022a8006920a800d002a8006900a800af
:1027d400c502a900c102a800c522a900c122a800ff
:1027e400c542a900c142a800c542a900c142a8002f
:1027f4000080fa00000006000200fa00004f780092
:102804001e417800c1802000824878000080fa00d0
:10281400000006000800fa001d01070010079800d8
:102824002107980070408000814080001e019000c4
:10283400ae01900000015100818159004000200048
:1028440001002000800f5100818f59006c00360078
:102854001e019000ae019000724088008340880001
:102864000040eb00004f7800610037001e40780004
:1028740073ff0700000f200001002000170107006c
:102884000040eb0010479800530037001e407800ca
:102894006300b90000007800804078001e4090007a
:1028a40000c04000604798001e40900096ff07005b
:1028b4000080fb000000e9004f00de007047980034
:1028c4006e4090000080fb0071c42000e14078005d
:1028d4007e40900080cf50000a0032006e4090008d
:1028e4000080fb0001c5200042c0b3008270780064
:1028f4006e4090000080fb0071c42000fe419000f7
:10290400837078006e4090000080fb0001c52000b9
:10291400614078000004e0002c0032006e4090001a
:102924000080fb0001c52000e14078000141e9007e
:1029340001c52000827078006e4090000080fb008a
:1029440001c52000614078000004e0001f003a0047
:102954007e4090000004e0000e0032006e409000c3
:102964000080fb00e1c32000614078000004e00027
:1029740008003a006e4090000080fb00e1c3200094
:1029840012c0b300827078006e409000a600070069
:102994000e0037007e4090000004e0000b003a0077
:1029a4006e4090000080fb00e1c32000614078008d
:1029b4000004e000050032006e4090000080fb003f
:1029c400e1c320000041eb00827078001e409000bb
:1029d4000040e800104798001e409000e24f50006d
:1029e400aaff36001e4078002eff07001e4fe800a5
:1029f4001e407800e24f50009cff36000100370073
:102a0400000000000080fa00000006000000fa0048
:102a14000c26ef00003020001030880030382800e9
:102a2400003088000080fa00000006000200fa006e
:102a3400004f78001e80fb00403088000080fa00c0
:102a4400000006000000fa000000000011308000c1
:102a540000002800008060000000e000fbff3a0056
:102a640040308000004078000080fa00000006003a
:102a74000000fa00103080004f00de0000407800b3
:082a84000080fa0000000600ca
:020000040000fa
:102a8c001608000002000000000000001208000000
:102a9c0004000000000000001a0800000004000000
:102aac00000000000008000006000000000000000c
:102abc0018080000020000000200000005070000da
:102acc001a0c0000240000000000000006080000a2
:102adc0006000000000000003e0c00001c0000007e
:102aec00000000000c0800000600000000000000c0
:042afc0000000000d6
:020000040000fa
:102b00000000fa00d122a9000080fa0000000600af
:102b10000200fa00004f78001e80fb00e10f500019
:102b200006003200e20f5000060032000000e00014
:102b30000d003a00d522a9000b003700d522a800cd
:102b400009003700911680000020200000806000fe
:102b50000000e00002003200d522a9000200370088
:102b6000d522a800000000000080fa000000060046
:102b70000000fa00d102a9000080fa00000006005f
:102b80000200fa00004f78001e80fb00e10f5000a9
:102b900006003200e20f5000060032000000e000a4
:102ba0000d003a00d502a9000b003700d502a8009d
:102bb000090037009116800000102000008060009e
:102bc0000000e00002003200d502a9000200370038
:102bd000d502a800000000000080fa0000000600f6
:102be0000000fa00a2fa070063ae280012c0b3008a
:102bf0008040eb000040eb008ffc07000040eb0042
:102c0000c3ff07000040eb00ddff07000080fa0073
:102c1000000006000200fa00004f780020c0b30058
:102c2000bbff07000080fa00000006000200fa0067
:102c3000004f780020c0b300d1ff07000080fa00e9
:102c4000000006000000fa0000042300203a88007b
:102c50000080eb00601988000080fa000000060088
:102c60000000fa00f7ff070018000700a4ff0700a4
:102c7000bfff07005bfa0700c9fd0700bbfe0700a6
:102c8000d7ff070074fa0700f0fd0700e2fe070017
:102c9000fcff37000000fa0090408000a140800057
:102ca0000080fa00000006000000fa00904080005a
:102cb000a140800061004000e08048009040880012
:102cc000a14088000080fa00000006000000fa0021
:102cd00040652100100007000080fa000000060097
:020000040000fa
:102ce000f03fb1000180b10006003500ee0309009d
:102cf00000000000403fb1000180b100fbff3d003b
:102d00001000b000203fb000020035000080090034
:082d10000000000000000600b5
:020000040000fa
:102d18000200fa00000f78009e007800b140880099
:102d280000022800f0088800a00f2000d0088800c2
:0c2d38009760a8000080fa000000060070
:00000001FF
